:020000040800F2
:100000000050002051190008F9140008FF140008DE
:10001000051500080B150008111500080000000068
:10002000000000000000000000000000171500089C
:1000300023150008000000002F1500083B150008DC
:1000400099190008991900089919000899190008C8
:1000500099190008991900089919000899190008B8
:1000600099190008991900089919000899190008A8
:100070009919000899190008991900089919000898
:100080009919000899190008991900089919000888
:100090009919000899190008991900089919000878
:1000A0009919000899190008991900089919000868
:1000B000491500085D1500089919000899190008EC
:1000C0009919000899190008991900089919000848
:1000D0009919000899190008711500089919000864
:1000E00099190008991900089919000800000000E2
:1000F0000000000000000000000000000000000000
:0C01000000000000000000005FF808F1A3
:10010C0010B5054C237833B9044B13B10448AFF345
:10011C0000800123237010BD980000200000000017
:10012C00E04D000808B5034B1BB103490348AFF37E
:10013C00008008BD000000009C000020E04D00087D
:10014C0080B500AF814B1B680133052B00F2F280A8
:10015C0001A252F823F000BF7D01000885010008C0
:10016C00D3010008310200088B020008DB020008F2
:10017C00764B00221A60E6E000F0CAF9744B1B685B
:10018C00744A1360744B1B68744A13603223142234
:10019C007349744803F098FB6E4B1B686F4A1268E6
:1001AC001146184601F08AFB4FF47A7001F03AFAC6
:1001BC006D4B4FF4FA721A606C4B14221A60634B3D
:1001CC0001221A60BFE000F0A3F9694B1B68012BF8
:1001DC0040F0B2805F4B1B68013B5E4A13605F4B83
:1001EC001B68013B5D4A13605C4B1B68002B0CDCED
:1001FC00604B1B68594A13605B4B4B221A605B4B7C
:10020C0064221A60514B02221A60524B1B68534AEB
:10021C0012681146184601F051FB4FF47A7001F048
:10022C0001FA89E000F074F9514B1B68012B40F086
:10023C008580484B1B68013B464A1360474B1B6843
:10024C00013B464A1360434B1B68002B0ADC424BB4
:10025C001B68404A13603E4B1B68404A13603B4B83
:10026C0003221A603B4B1B683C4A12681146184625
:10027C0001F024FB4FF47A7001F0D4F95EE000F049
:10028C0047F93B4B1B68012B5AD1324B1B68013B86
:10029C00304A1360314B1B68013B304A13602D4BC5
:1002AC001B68002B06DC334B1B682A4A1360274B58
:1002BC0004221A60274B1B68284A126811461846FC
:1002CC0001F0FCFA4FF47A7001F0ACF938E000F070
:1002DC001FF9274B1B68012B34D11E4B1B68013BAC
:1002EC001C4A13601D4B1B68013B1C4A1360194BC5
:1002FC001B68002B11DC164B1B68164A1360164B3F
:10030C001B68164A1360184B4FF4FA721A60174B9D
:10031C0014221A600D4B01221A600E4B1B680F4AF7
:10032C0012681146184601F0C9FA4FF47A7001F0C0
:10033C0079F907E000BF06E000BF04E000BF02E06F
:10034C0000BF00E000BF00BF80BD00BF0C0000205C
:10035C0000000020B400002008000020B80000209D
:10036C00F84D00086C01002014000020180000203B
:10037C00E40100200400002080B500AF1C4B1B687A
:10038C00072B23D0072B2CDC052B02D0062B12D0ED
:10039C0027E000F0BDF84FF4FA7001F029F9322390
:1003AC0014221449144803F08FFA01F01BFA104B75
:1003BC0006221A601AE0114B1B68012B13D100F0B6
:1003CC00F9F94FF4FA7001F013F90CE00B4B1B68C0
:1003DC00012B0AD100F0EEF94FF4FA7001F008F994
:1003EC0003E000BF02E000BF00E000BF00BF80BD23
:1003FC000C0000200C4E00086C010020D8010020DD
:10040C0080B500AF1C4B1B680A2B23D00A2B2CDCAD
:10041C00082B02D0092B12D027E000F079F84FF40A
:10042C00FA7001F0E5F8322314221449144803F051
:10043C004BFA01F0FBF9104B09221A601AE0114B30
:10044C001B68012B13D100F0CFF94FF4FA7001F0B7
:10045C00CFF80CE00B4B1B68012B0AD100F0C4F950
:10046C004FF4FA7001F0C4F803E000BF02E000BFE3
:10047C0000E000BF00BF80BD0C000020204E000833
:10048C006C010020D801002080B500AF1C4B1B680C
:10049C000D2B23D00D2B2CDC0B2B02D00C2B12D0C4
:1004AC0027E000F035F84FF4FA7001F0A1F8322390
:1004BC0014221449144803F007FA01F0DBF9104B2D
:1004CC000C221A601AE0114B1B68012B13D100F09F
:1004DC00A5F94FF4FA7001F08BF80CE00B4B1B688C
:1004EC00012B0AD100F09AF94FF4FA7001F080F860
:1004FC0003E000BF02E000BF00E000BF00BF80BD12
:10050C000C000020344E00086C010020D8010020A3
:10051C0080B500AF00F0D8F900F056F8284B1B68F6
:10052C000B2B4AD801A252F823F000BF6905000832
:10053C00770500088105000887050008910500086B
:10054C0097050008C7050008C7050008A70500089F
:10055C00C7050008C7050008B705000800F09AF8A1
:10056C0000F0ACF800F074F928E000F0B7F800F0F7
:10057C0011F923E000F0EAF820E000F0F7F800F0C1
:10058C00C1F81BE000F0CEF818E000F0A7F800F07E
:10059C00B9F80C4B00221A6010E000F0C3F800F020
:1005AC00D5F8084B00221A6008E000F0DFF800F0E4
:1005BC00F1F8044B00221A6000E000BF00BF80BDC0
:1005CC000C000020BC00002080B500AF2F4B1B6836
:1005DC000B2B58D801A252F823F000BF19060008C3
:1005EC001F06000833060008470600085B060008D3
:1005FC006F06000893060008930600087B060008A7
:10060C0093060008930600088706000800F020F9FE
:10061C003AE01F4B1B78002B02D100F041F933E07C
:10062C0000F016F930E01A4B1B78002B02D100F0C9
:10063C0037F929E000F00CF926E0154B1B78002B5C
:10064C0002D100F019F91FE000F002F91CE0104B88
:10065C001B78002B02D100F00FF915E000F0F8F830
:10066C0012E00B4B01221A7000F0F2F80CE0084B70
:10067C0001221A7000F0ECF806E0054B01221A700A
:10068C0000F0E6F800E000BF00BF80BD0C000020C9
:10069C001000002080B500AF00224FF480610548A7
:1006AC0001F033FD00220821034801F02EFD00BFAC
:1006BC0080BD00BF00080140000C014080B500AFB8
:1006CC0000222021044801F020FD002210210248C4
:1006DC0001F01BFD00BF80BD000C014080B500AFD8
:1006EC0001224FF48061054801F00FFD0022082122
:1006FC00034801F00AFD00BF80BD00BF00080140A7
:10070C00000C014080B500AF01222021044801F00B
:10071C00FCFC00221021024801F0F7FC00BF80BD58
:10072C00000C014080B500AF01224FF480610548F8
:10073C0001F0EBFC01220821034801F0E6FC00BFAC
:10074C0080BD00BF00080140000C014080B500AF27
:10075C0001222021044801F0D8FC0122102102487A
:10076C0001F0D3FC00BF80BD000C014080B500AF90
:10077C0000224FF48061054801F0C7FC01220821DA
:10078C00034801F0C2FC00BF80BD00BF000801405F
:10079C00000C014080B500AF00222021044801F07C
:1007AC00B4FC01221021024801F0AFFC00BF80BD57
:1007BC00000C014080B500AF0A4B1B68002B07D121
:1007CC00FFF78CFFFFF79EFF064B01221A6006E035
:1007DC00FFF760FFFFF772FF024B00221A6000BFA9
:1007EC0080BD00BFBC00002080B500AF0A4B1B6869
:1007FC00002B07D1FFF796FFFFF7A8FF064B01224E
:10080C001A6006E0FFF746FFFFF758FF024B002285
:10081C001A6000BF80BD00BFBC00002080B500AFD7
:10082C000A4B1B68002B07D1FFF7A0FFFFF7B2FFA5
:10083C00064B01221A6006E0FFF72CFFFFF73EFF84
:10084C00024B00221A6000BF80BD00BFBC0000201C
:10085C0080B500AF00224FF48061054801F055FCD3
:10086C0000224FF48071034801F04FFC00BF80BDA3
:10087C00000C01400008014080B500AF01224FF48C
:10088C008061054801F041FC00224FF4807103485F
:10089C0001F03BFC00BF80BD000C01400008014092
:1008AC0080B500AF00224FF48061054801F02DFCAB
:1008BC0001224FF48071034801F027FC00BF80BD7A
:1008CC00000C01400008014080B500AF344B1B68A0
:1008DC000B2B62D801A252F823F000BF19090008B3
:1008EC0021090008370900084D09000865090008AE
:1008FC007D090008A7090008A70900088B09000852
:10090C00A7090008A709000899090008002000F0B1
:10091C000FFB43E0234B1B78002B02D100F044F873
:10092C003CE0002000F004FB38E01E4B1B78002B51
:10093C0002D100F039F831E0002000F0F9FA2DE096
:10094C00184B1B78002B03D1002000F0F1FA25E0A6
:10095C00002000F0EDFA21E0124B1B78002B03D1A4
:10096C00002000F0E5FA19E0002000F0E1FA15E0B3
:10097C000C4B01221A70002000F0DAFA0EE0094B41
:10098C0001221A70002000F0D3FA07E0054B012277
:10099C001A70002000F0CCFA00E000BF00BF80BD50
:1009AC000C0000201000002080B500AF0E4B1B681F
:1009BC00012B17D10D4B1B68184600F067FE0C4B32
:1009CC001B68002B08D10B4B1B68184600F0B0FAC3
:1009DC00074B01221A6005E0002000F0A9FA044B35
:1009EC0000221A6000BF80BDEC0100201400002022
:1009FC00C00000201800002080B500AF994B1B6888
:100A0C00012B05D1974B00221A60974B01221A70CB
:100A1C00964B1B78022B43D0022B50DC002B02D0C0
:100A2C00012B29D04BE0002000F04EFA0346002B9E
:100A3C0040D08E4B01221A708B4B1B78012B39D175
:100A4C008B4B1B68002B0FD0894B1B68012B0BD0D9
:100A5C00874B1B68022B07D0854B1B68032B03D0DD
:100A6C00834B1B68042B25D17F4B00221A7042F25A
:100A7C00107000F0F1FD1DE0002000F025FA034697
:100A8C00002B03D1794B00221A7015E0002000F0E6
:100A9C0035FA0346002B0FD0744B02221A700BE070
:100AAC00002000F011FA0346002B07D16F4B0022F7
:100ABC001A7003E000BF02E000BF00E000BF6D4B06
:100ACC001B78022B40D0022B4DDC002B02D0012BCB
:100ADC0026D048E0012000F0F7F90346002B3DD06A
:100AEC00644B01221A70624B1B68012B02D1604BC4
:100AFC0005221A605E4B1B68062B02D15C4B082248
:100B0C001A605B4B1B68092B02D1594B0B221A60E4
:100B1C00574B1B680C2B21D1554B00221A601DE042
:100B2C00012000F0D1F90346002B03D1514B0022D8
:100B3C001A7015E0012000F0E1F90346002B0FD0EC
:100B4C004C4B02221A700BE0012000F0BDF9034659
:100B5C00002B07D1474B00221A7003E000BF02E0C4
:100B6C0000BF00E000BF444B1B78022B70D0022B5F
:100B7C0000F38F80002B02D0012B55D089E002208E
:100B8C0000F0A2F90346002B7ED03B4B01221A70D9
:100B9C00374B1B68062B03D0354B1B68072B10D12A
:100BAC00334B07221A60354B1B680133334A1360F1
:100BBC00324B1B68622B02DD304B01221A6000F0B5
:100BCC0011FE2B4B1B68092B03D0294B1B680A2BDE
:100BDC0010D1274B0A221A60294B1B680133284A73
:100BEC001360274B1B68042B02DD254B01221A6076
:100BFC0000F01CFE1E4B1B680C2B03D01C4B1B68FF
:100C0C000D2B41D11A4B0D221A601E4B1B68013360
:100C1C001C4A13601B4B1B68622B02DD194B012213
:100C2C001A6000F027FE2FE0022000F04DF9034679
:100C3C00002B03D1104B00221A7027E0022000F089
:100C4C005DF90346002B21D00B4B02221A701DE0DC
:100C5C00022000F039F90346002B19D1064B002273
:100C6C001A7015E0E8010020100000201C00002084
:100C7C000C0000201D0000201E00002000000020A1
:100C8C00040000200800002000BF02E000BF00E0CC
:100C9C0000BF4A4B1B78022B7ED0022B00F38B80BB
:100CAC00002B02D0012B63D085E0032000F00CF95F
:100CBC000346002B7AD0414B01221A70404B1B6823
:100CCC00072B14D13E4B06221A603E4B1A683E4B42
:100CDC001B689A4204DC3C4B1B680133394A136095
:100CEC00384B1A68384B1B68D31A384A1360344B8C
:100CFC001B680A2B14D1324B09221A60314B1A682B
:100D0C00314B1B689A4204DC2F4B1B6801332D4A74
:100D1C0013602C4B1A682C4B1B68D31A2B4A13608C
:100D2C00274B1B680D2B16D1254B0C221A60264B1A
:100D3C001A68264B1B681344622B05DD224B0422D8
:100D4C001A60224B5F221A601F4B1A681F4B1B68DC
:100D5C0013441C4A136032230B221D491D4802F018
:100D6C00B3FD322304221C491A4802F0ADFD1DE0EC
:100D7C00032000F0A9F80346002B03D10F4B0022EF
:100D8C001A7015E0032000F0B9F80346002B0FD0C1
:100D9C000A4B02221A700BE0032000F095F8034670
:100DAC00002B07D1054B00221A7003E000BF02E0B4
:100DBC0000BF00E000BF00BF80BD00BF1F000020CF
:100DCC000C0000200000002004000020080000207F
:100DDC00484E00086C010020544E000880B582B0CB
:100DEC0000AF00237B6058E0304A7B6813441978CD
:100DFC002F4A7B6813440A461A702E4A7B6852F8B5
:100E0C0023202D497B6831F813301946104601F028
:100E1C0065F903461946254A7B6813440A461A703D
:100E2C00224A7B6813441A7821497B680B441B784F
:100E3C009A4208D11D4A7B68134419781F4A7B6873
:100E4C0013440A461A701D4A7B6813441B78002B06
:100E5C0016D11B4A7B6832F81330632B0AD8184A18
:100E6C007B6832F81330013399B2154A7B6822F84B
:100E7C0013100FE0134A7B68134401221A7009E027
:100E8C000F4A7B68002122F813100E4A7B6813442A
:100E9C0000221A707B6801337B607B68032BA3DD17
:100EAC0000BF00BF0837BD4680BD00BFC800002092
:100EBC00CC0000202000002030000020C4000020C6
:100ECC00D4000020D000002080B483B000AF0346D3
:100EDC00FB71FB79032B01D9002307E0FB79064A50
:100EEC00D35C002B0CBF01230023DBB218460C375C
:100EFC00BD4680BC704700BFC400002080B483B0E6
:100F0C0000AF0346FB71FB79032B01D9002307E0EB
:100F1C00FB79064AD35C012B0CBF01230023DBB207
:100F2C0018460C37BD4680BC704700BFD00000206F
:100F3C0080B483B000AF7860044B1B687A685A6346
:100F4C0000BF0C37BD4680BC704700BF2401002099
:100F5C0080B500AF00F01CFD00F026F800F050F951
:100F6C0000F062F800F0ACF800F020F90C4801F049
:100F7C0045FD0C4801F042FD00210A4801F0E8FD56
:100F8C004FF4FA7000F082FBFFF7DAF8FFF7F4F990
:100F9C00FFF736FAFFF778FAFFF72EFDF4E700BFFC
:100FAC00DC0000202401002080B590B000AF07F1D8
:100FBC00180328220021184603F07AFA3B1D002260
:100FCC001A605A609A60DA601A610223BB610123CD
:100FDC00BB621023FB6202237B630023BB630023F1
:100FEC00FB6307F11803184601F0A8F80346002B21
:100FFC0001D000F07FF90F237B600223BB6000233C
:10100C00FB604FF480633B6100237B613B1D00213F
:10101C00184601F015FB0346002B01D000F06AF9CD
:10102C0000BF4037BD4680BD80B586B000AF07F12C
:10103C00080300221A605A609A60DA603B4600226C
:10104C001A605A601D4B4FF080421A601B4B41F6E0
:10105C003F725A60194B00229A60184B0922DA60D1
:10106C00164B00221A61154B00229A61134801F0AD
:10107C0075FC0346002B01D000F03CF94FF4805373
:10108C00BB6007F1080319460C4801F0CDFF03467D
:10109C00002B01D000F02EF900233B6000237B6075
:1010AC003B461946054802F04FFB0346002B01D086
:1010BC0000F020F900BF1837BD4680BDDC000020D1
:1010CC0080B58EB000AF07F1280300221A605A6079
:1010DC009A60DA6007F1200300221A605A603B1D07
:1010EC0000221A605A609A60DA601A615A619A6139
:1010FC002C4B2D4A1A602B4B41F63F725A60294BF0
:10110C0000229A60274B0922DA60264B00221A61D2
:10111C00244B00229A61234801F020FC0346002B4B
:10112C0001D000F0E7F84FF48053BB6207F12803BD
:10113C0019461C4801F078FF0346002B01D000F043
:10114C00D9F8184801F0ACFC0346002B01D000F094
:10115C00D1F800233B6200237B6207F12003194680
:10116C00104802F0F1FA0346002B01D000F0C2F84F
:10117C0060237B600023BB600023FB6000237B614A
:10118C003B1D00221946074801F08CFE0346002B3C
:10119C0001D000F0AFF8034800F024F900BF383755
:1011AC00BD4680BD240100200004004080B500AF86
:1011BC00114B124A1A60104B4FF416525A600E4BD8
:1011CC0000229A600C4B0022DA600B4B00221A6151
:1011DC00094B0C225A61084B00229A61064B0022E3
:1011EC00DA61054802F020FB0346002B01D000F029
:1011FC0081F800BF80BD00BF6C010020004400409E
:10120C0080B586B000AF07F1080300221A605A605F
:10121C009A60DA602E4B9B692D4A43F0040393616C
:10122C002B4B9B6903F004037B607B68284B9B6909
:10123C00274A43F008039361254B9B6903F008038D
:10124C003B603B6800224FF48761224800F05DFF51
:10125C0000224FF4A061204800F057FF1323BB601D
:10126C000023FB6000233B6107F1080319461A4871
:10127C0000F0B0FD0123BB600023FB6000233B6149
:10128C0007F108031946134800F0A4FD4FF48763D7
:10129C00BB600123FB6000233B6102237B6107F1F0
:1012AC00080319460B4800F095FD4FF4A063BB6092
:1012BC000123FB6000233B6102237B6107F10803E0
:1012CC001946054800F086FD00BF1837BD4680BDA5
:1012DC0000100240000C01400008014080B582B0B3
:1012EC0000AF786000F0ECF9FFF778FD00BF08372D
:1012FC00BD4680BD80B400AF72B600BFFEE70000F3
:10130C0080B485B000AF154B9B69144A43F00103C0
:10131C009361124B9B6903F00103BB60BB680F4BDD
:10132C00DB690E4A43F08053D3610C4BDB6903F04D
:10133C0080537B607B680A4B5B68FB60FB6823F027
:10134C00E063FB60FB6843F00073FB60044AFB68DE
:10135C00536000BF1437BD4680BC7047001002407C
:10136C000000014080B584B000AF78607B681B68DA
:10137C00B3F1804F14D1194BDB69184A43F00103C8
:10138C00D361164BDB6903F00103FB60FB680022A1
:10139C0000211C2000F035FC1C2000F04EFC18E055
:1013AC007B681B680E4A934213D10C4BDB690B4ACA
:1013BC0043F00203D361094BDB6903F00203BB600A
:1013CC00BB68002200211D2000F01BFC1D2000F03A
:1013DC0034FC00BF1037BD4680BD00BF001002407A
:1013EC000004004080B588B000AF786007F11003AE
:1013FC0000221A605A609A60DA607B681B680F4A98
:10140C00934217D10E4B9B690D4A43F00403936131
:10141C000B4B9B6903F00403FB60FB6840233B61AF
:10142C0002237B610223FB6107F110031946054877
:10143C0000F0D0FC00BF2037BD4680BD000400404A
:10144C00001002400008014080B588B000AF786001
:10145C0007F1100300221A605A609A60DA607B6808
:10146C001B681F4A934237D11E4BDB691D4A43F45C
:10147C000033D3611B4BDB6903F40033FB60FB6867
:10148C00184B9B69174A43F004039361154B9B69F6
:10149C0003F00403BB60BB6804233B6102237B6144
:1014AC000323FB6107F1100319460F4800F092FC6F
:1014BC0008233B6100237B610023BB6107F1100310
:1014CC001946094800F086FC00220021262000F075
:1014DC0098FB262000F0B1FB00BF2037BD4680BD35
:1014EC0000440040001002400008014080B400AFEE
:1014FC00FEE780B400AFFEE780B400AFFEE780B437
:10150C0000AFFEE780B400AFFEE780B400AF00BFD1
:10151C00BD4680BC704780B400AF00BFBD4680BCE8
:10152C00704780B400AF00BFBD4680BC704780B52B
:10153C0000AF00F073FA00BF80BD000080B500AFB3
:10154C00024801F0A7FB00BF80BD00BFDC000020FB
:10155C0080B500AF024801F09DFB00BF80BD00BF0D
:10156C002401002080B500AF024802F031FA00BF20
:10157C0080BD00BF6C01002080B586B000AF7860E4
:10158C00144A154BD31A7B617B693B61134B1B6867
:10159C00002B02D1114B124A1A60104B1A687B684F
:1015AC0013443A699A4207D202F08AFF03460C228E
:1015BC001A604FF0FF3309E0084B1B68FB60074BC8
:1015CC001A687B681344054A1360FB681846183781
:1015DC00BD4680BD0050002000040000B401002076
:1015EC004003002080B400AF00BFBD4680BC7047F4
:1015FC0080B483B000AF7860074B1B687A6892FBAD
:10160C00F3F3064A1360064B00221A6000BF0C3736
:10161C00BD4680BC704700BF3C000020BC010020D0
:10162C00D801002080B483B000AF7860074B1B68F2
:10163C007A6892FBF3F3064A1360064B00221A6099
:10164C0000BF0C37BD4680BC704700BF3C0000207B
:10165C00C8010020E401002080B483B000AF7860A2
:10166C00074B1B687A6892FBF3F3064A1360064B30
:10167C0000221A6000BF0C37BD4680BC704700BF0B
:10168C003C000020CC010020E801002080B483B095
:10169C0000AF7860074B1B687A6892FBF3F3064A3D
:1016AC001360064B00221A6000BF0C37BD4680BC8D
:1016BC00704700BF3C000020D0010020EC0100204E
:1016CC0080B400AF394B1B68002B0BDD374B1B680C
:1016DC00013B364A1360354B1B68002B02D1344B4F
:1016EC0001221A60334B1B68002B0BDD314B1B683E
:1016FC00013B304A13602F4B1B68002B02D12E4B41
:10170C0001221A602D4B1B68002B0BDD2B4B1B6829
:10171C00013B2A4A1360294B1B68002B02D1284B32
:10172C0001221A60274B1B68002B0BDD254B1B6815
:10173C00013B244A1360234B1B68002B02D1224B24
:10174C0001221A60214B1B68002B0BDD1F4B1B6801
:10175C00013B1E4A13601D4B1B68002B02D11C4B16
:10176C0001221A601B4B1B68002B0BDD194B1B68ED
:10177C00013B184A1360174B1B68002B02D1164B08
:10178C0001221A60154B1B68002B0BDD134B1B68D9
:10179C00013B124A1360114B1B68002B02D1104BFA
:1017AC0001221A6000BFBD4680BC7047B801002002
:1017BC00D4010020BC010020D8010020C001002071
:1017CC00DC010020C4010020E0010020C801002041
:1017DC00E4010020CC010020E8010020D001002011
:1017EC00EC01002080B584B000AF32230B220B49F2
:1017FC000B4802F069F80B4B1A683B460A4918462D
:10180C0002F036FE03469AB239463223044802F0FF
:10181C005BF800BF1037BD4680BD00BF584E0008B6
:10182C006C01002000000020644E000880B584B0DC
:10183C0000AF32230B220B490B4802F045F80B4B3F
:10184C001A683B460A49184602F012FE03469AB241
:10185C0039463223044802F037F800BF1037BD4632
:10186C0080BD00BF6C4E00086C01002004000020FD
:10187C00644E000880B584B000AF32230B220B49B4
:10188C000B4802F021F80B4B1A683B460A491846E4
:10189C0002F0EEFD03469AB239463223044802F0B8
:1018AC0013F800BF1037BD4680BD00BF784E00084E
:1018BC006C01002008000020644E000880B586B042
:1018CC0000AF7860396032230C221949194801F0B5
:1018DC00FBFF07F108037A681749184602F0C8FDA8
:1018EC0003469AB207F108013223124801F0ECFFCB
:1018FC0032230C2211490F4801F0E6FF07F10803CF
:10190C003A680D49184602F0B3FD03469AB207F146
:10191C0008013223074801F0D7FF3223022208497D
:10192C00044801F0D1FF00BF1837BD4680BD00BF91
:10193C00844E00086C010020644E0008904E000894
:10194C009C4E0008FFF74EFE0B480C490C4A002336
:10195C0002E0D458C4500433C4188C42F9D3094A59
:10196C00094C002301E013600432A242FBD302F0C5
:10197C00ADFDFFF7EDFA7047000000209800002045
:10198C00084F0008980000203C030020FEE70000F0
:10199C0080B500AF084B1B68074A43F01003136077
:1019AC00032000F023F90F2000F008F8FFF7A8FC43
:1019BC000023184680BD00BF0020024080B582B0D5
:1019CC0000AF7860124B1A68124B1B7819464FF413
:1019DC007A73B3FBF1F3B2FBF3F3184600F03BF967
:1019EC000346002B01D001230EE07B680F2B0AD895
:1019FC00002279684FF0FF3000F003F9064A7B684B
:101A0C001360002300E0012318460837BD4680BD53
:101A1C0038000020440000204000002080B400AFBB
:101A2C00054B1B781A46054B1B681344034A13607D
:101A3C0000BFBD4680BC704744000020F001002070
:101A4C0080B400AF024B1B681846BD4680BC704783
:101A5C00F001002080B485B000AF78607B6803F0A3
:101A6C000703FB600C4BDB68BB60BA684FF6FF03E7
:101A7C001340BB60FB681A02BB68134343F0BF639F
:101A8C0043F40033BB60044ABB68D36000BF143717
:101A9C00BD4680BC704700BF00ED00E080B400AFD5
:101AAC00044BDB681B0A03F007031846BD4680BCD9
:101ABC00704700BF00ED00E080B483B000AF034678
:101ACC00FB7197F90730002B0BDBFB7903F01F023E
:101ADC00064997F907305B09012000FA02F241F838
:101AEC00232000BF0C37BD4680BC704700E100E0EE
:101AFC0080B483B000AF03463960FB7197F90730AF
:101B0C00002B0ADB3B68DAB20C4997F9073012015B
:101B1C00D2B20B4483F800230AE03B68DAB20849DE
:101B2C00FB7903F00F03043B1201D2B20B441A767B
:101B3C0000BF0C37BD4680BC704700BF00E100E021
:101B4C0000ED00E080B489B000AFF860B9607A6055
:101B5C00FB6803F00703FB61FB69C3F10703042B6C
:101B6C0028BF0423BB61FB690433062B02D9FB6934
:101B7C00033B00E000237B614FF0FF32BB6902FAAC
:101B8C0003F3DA43BB681A407B699A404FF0FF318C
:101B9C007B6901FA03F3D9437B680B401343184666
:101BAC002437BD4680BC704780B582B000AF7860EA
:101BBC007B68013BB3F1807F01D301230FE00A4A1C
:101BCC007B68013B53600F214FF0FF30FFF790FF14
:101BDC00054B00229A60044B07221A60002318461A
:101BEC000837BD4680BD00BF10E000E080B582B074
:101BFC0000AF78607868FFF72DFF00BF0837BD464F
:101C0C0080BD80B586B000AF0346B9607A60FB73C7
:101C1C0000237B61FFF742FF78617A68B9687869C5
:101C2C00FFF790FF024697F90F3011461846FFF761
:101C3C005FFF00BF1837BD4680BD80B582B000AFD6
:101C4C000346FB7197F907301846FFF735FF00BFC5
:101C5C000837BD4680BD80B582B000AF786078682B
:101C6C00FFF7A2FF034618460837BD4680BD80B477
:101C7C0085B000AF78600023FB737B6893F821304C
:101C8C00DBB2022B08D07B6804229A637B680022AB
:101C9C0083F82020012320E07B681B681A687B688E
:101CAC001B6822F00E021A607B681B681A687B683E
:101CBC001B6822F001021A607B681A6C7B68DB6B74
:101CCC00012101FA02F25A607B68012283F821207B
:101CDC007B68002283F82020FB7B18461437BD4616
:101CEC0080BC704780B584B000AF78600023FB7374
:101CFC007B6893F82130DBB2022B05D07B68042281
:101D0C009A630123FB7351E07B681B681A687B683C
:101D1C001B6822F00E021A607B681B681A687B68CD
:101D2C001B6822F001021A607B681B68224A9342EE
:101D3C0029D07B681B68214A934222D07B681B68A0
:101D4C001F4A93421AD07B681B681E4A934212D0DA
:101D5C007B681B681C4A93420AD07B681B681B4A31
:101D6C00934202D14FF480130EE04FF080730BE0DE
:101D7C004FF4803308E04FF4805305E04FF4807348
:101D8C0002E0102300E00123114A53607B6801221A
:101D9C0083F821207B68002283F820207B685B6B12
:101DAC00002B03D07B685B6B78689847FB7B1846ED
:101DBC001037BD4680BD00BF080002401C00024029
:101DCC003000024044000240580002406C000240C7
:101DDC000000024080B48BB000AF78603960002303
:101DEC007B6200233B6269E101227B6A02FA03F306
:101DFC00FB613B681B68FA691340BB61BA69FB69FC
:101E0C009A4240F058813B685B689A4A93425ED094
:101E1C00984A934275D8984A934258D0964A93421E
:101E2C006FD8964A934252D0944A934269D8944AB6
:101E3C0093424CD0924A934263D8924A934246D0F2
:101E4C00904A93425DD8122B2AD8122B59D801A252
:101E5C0052F823F0DB1E0008B51E0008C71E000850
:101E6C00091F00080F1F00080F1F00080F1F000894
:101E7C000F1F00080F1F00080F1F00080F1F00087E
:101E8C000F1F00080F1F00080F1F00080F1F00086E
:101E9C000F1F00080F1F0008BD1E0008D11E0008F0
:101EAC00794A934213D02CE03B68DB683B6229E013
:101EBC003B68DB6804333B6224E03B68DB68083337
:101ECC003B621FE03B68DB680C333B621AE03B680B
:101EDC009B68002B02D104233B6213E03B689B6898
:101EEC00012B05D108233B627B68FA691A6109E072
:101EFC0008233B627B68FA695A6103E000233B626A
:101F0C0000E000BFBB69FF2B01D87B6801E07B6858
:101F1C0004337B61BB69FF2B02D87B6A9B0002E018
:101F2C007B6A083B9B003B617B691A680F213B690C
:101F3C0001FA03F3DB431A40396A3B6901FA03F3F4
:101F4C001A437B691A603B685B6803F08053002B73
:101F5C0000F0B1804D4B9B694C4A43F001039361F7
:101F6C004A4B9B6903F00103BB60BB68484A7B6A20
:101F7C009B08023352F82330FB607B6A03F00303A7
:101F8C009B000F2202FA03F3DB43FA681340FB6059
:101F9C007B68404A934213D07B683F4A93420DD0F2
:101FAC007B683E4A934207D07B683D4A934201D1FD
:101FBC00032306E0042304E0022302E0012300E0F3
:101FCC0000237A6A02F0030292009340FA681343EA
:101FDC00FB602F497B6A9B080233FA6841F8232087
:101FEC003B685B6803F48013002B06D02D4B9A687A
:101FFC002C49BB6913438B6006E02A4B9A68BB697A
:10200C00DB43284913408B603B685B6803F4001387
:10201C00002B06D0234BDA682249BB691343CB60F3
:10202C0006E0204BDA68BB69DB431E491340CB60EA
:10203C003B685B6803F40033002B06D0194B5A68DD
:10204C001849BB6913434B6006E0164B5A68BB69D1
:10205C00DB43144913404B603B685B6803F48033EB
:10206C00002B21D00F4B1A680E49BB6913430B6030
:10207C0021E000BF000032100000311000002210DF
:10208C00000021100000121000001110001002407E
:10209C000000014000080140000C0140001001400C
:1020AC0000140140000401400B4B1A68BB69DB4370
:1020BC00094913400B607B6A01337B623B681A68E9
:1020CC007B6A22FA03F3002B7FF48EAE00BF00BFB5
:1020DC002C37BD4680BC70470004014080B485B0ED
:1020EC0000AF78600B467B807B689A687B881340D6
:1020FC00002B02D00123FB7301E00023FB73FB7B5D
:10210C0018461437BD4680BC704780B483B000AF0E
:10211C0078600B467B8013467B707B78002B03D05A
:10212C007A887B681A6103E07B881A047B681A61E1
:10213C0000BF0C37BD4680BC7047000080B586B030
:10214C0000AF78607B68002B01D1012372E27B68C1
:10215C001B6803F00103002B00F08780924B5B6837
:10216C0003F00C03042B0CD08F4B5B6803F00C03B7
:10217C00082B12D18C4B5B6803F48033B3F5803F92
:10218C000BD1894B1B6803F40033002B6CD07B689C
:10219C005B68002B68D101234CE27B685B68B3F56C
:1021AC00803F06D1804B1B687F4A43F48033136019
:1021BC002EE07B685B68002B0CD17B4B1B687A4A4A
:1021CC0023F480331360784B1B68774A23F4802305
:1021DC0013601DE07B685B68B3F5A02F0CD1724BCC
:1021EC001B68714A43F4802313606F4B1B686E4A63
:1021FC0043F4803313600BE06B4B1B686A4A23F487
:10220C0080331360684B1B68674A23F48023136088
:10221C007B685B68002B13D0FFF712FC386108E079
:10222C00FFF70EFC02463B69D31A642B01D903233A
:10223C0000E25D4B1B6803F40033002BF0D014E07C
:10224C00FFF7FEFB386108E0FFF7FAFB02463B693B
:10225C00D31A642B01D90323ECE1534B1B6803F411
:10226C000033002BF0D100E000BF7B681B6803F04B
:10227C000203002B63D04C4B5B6803F00C03002B68
:10228C000BD0494B5B6803F00C03082B1CD1464B5D
:10229C005B6803F48033002B16D1434B1B6803F0AF
:1022AC000203002B05D07B681B69012B01D0012395
:1022BC00C0E13D4B1B6823F0F8027B685B69DB00D7
:1022CC00394913430B603AE07B681B69002B20D023
:1022DC00364B01221A60FFF7B3FB386108E0FFF7B9
:1022EC00AFFB02463B69D31A022B01D90323A1E1B0
:1022FC002D4B1B6803F00203002BF0D02A4B1B68FC
:10230C0023F0F8027B685B69DB00274913430B6001
:10231C0015E0264B00221A60FFF792FB386108E0AB
:10232C00FFF78EFB02463B69D31A022B01D903231C
:10233C0080E11D4B1B6803F00203002BF0D17B687E
:10234C001B6803F00803002B3AD07B689B69002BB9
:10235C0019D0174B01221A60FFF772FB386108E0A5
:10236C00FFF76EFB02463B69D31A022B01D90323FC
:10237C0060E10D4B5B6A03F00203002BF0D00120EF
:10238C0000F0CEFA1CE00A4B00221A60FFF758FB53
:10239C0038610FE0FFF754FB02463B69D31A022B5E
:1023AC0008D9032346E100BF00100240000042425E
:1023BC0080044242924B5B6A03F00203002BE9D18A
:1023CC007B681B6803F00403002B00F0A68000233D
:1023DC00FB758B4BDB6903F08053002B0DD1884BC5
:1023EC00DB69874A43F08053D361854BDB6903F08B
:1023FC008053BB60BB680123FB75824B1B6803F4E5
:10240C008073002B18D17F4B1B687E4A43F480737A
:10241C001360FFF715FB386108E0FFF711FB02466C
:10242C003B69D31A642B01D9032303E1754B1B6859
:10243C0003F48073002BF0D07B68DB68012B06D192
:10244C006F4B1B6A6E4A43F0010313622DE07B68ED
:10245C00DB68002B0CD16A4B1B6A694A23F0010321
:10246C001362674B1B6A664A23F0040313621CE079
:10247C007B68DB68052B0CD1614B1B6A604A43F00F
:10248C00040313625E4B1B6A5D4A43F00103136243
:10249C000BE05B4B1B6A5A4A23F001031362584B47
:1024AC001B6A574A23F0040313627B68DB68002B1A
:1024BC0015D0FFF7C5FA38610AE0FFF7C1FA0246FA
:1024CC003B69D31A41F28832934201D90323B1E01C
:1024DC004B4B1B6A03F00203002BEED014E0FFF70A
:1024EC00AFFA38610AE0FFF7ABFA02463B69D31A40
:1024FC0041F28832934201D903239BE0404B1B6A83
:10250C0003F00203002BEED1FB7D012B05D13C4BDC
:10251C00DB693B4A23F08053D3617B68DB69002B7A
:10252C0000F08780364B5B6803F00C03082B61D0FE
:10253C007B68DB69022B46D1334B00221A60FFF714
:10254C007FFA386108E0FFF77BFA02463B69D31A41
:10255C00022B01D903236DE0294B1B6803F0007398
:10256C00002BF0D17B681B6AB3F5803F08D1244B5C
:10257C005B6823F400327B689B68214913434B60F2
:10258C001F4B5B6823F474127B68196A7B685B6A67
:10259C000B431B4913434B601B4B01221A60FFF783
:1025AC004FFA386108E0FFF74BFA02463B69D31A41
:1025BC00022B01D903233DE0114B1B6803F0007380
:1025CC00002BF0D035E0104B00221A60FFF738FAE0
:1025DC00386108E0FFF734FA02463B69D31A022B44
:1025EC0001D9032326E0064B1B6803F00073002B74
:1025FC00F0D11EE07B68DB69012B07D1012319E0C8
:10260C000010024000700040600042420B4B5B68BF
:10261C00FB60FB6803F480327B681B6A9A4206D12C
:10262C00FB6803F470127B685B6A9A4201D0012349
:10263C0000E0002318461837BD4680BD001002404C
:10264C0080B584B000AF786039607B68002B01D115
:10265C000123D0E06A4B1B6803F007033A689A42E7
:10266C0010D9674B1B6823F0070265493B6813437D
:10267C000B60634B1B6803F007033A689A4201D066
:10268C000123B8E07B681B6803F00203002B20D009
:10269C007B681B6803F00403002B05D0594B5B6867
:1026AC00584A43F4E06353607B681B6803F00803EB
:1026BC00002B05D0534B5B68524A43F46053536074
:1026CC00504B5B6823F0F0027B689B684D491343C9
:1026DC004B607B681B6803F00103002B40D07B68C8
:1026EC005B68012B07D1474B1B6803F40033002BAD
:1026FC0015D101237FE07B685B68022B07D1414B2E
:10270C001B6803F00073002B09D1012373E03D4BD0
:10271C001B6803F00203002B01D101236BE0394B42
:10272C005B6823F003027B685B68364913434B609C
:10273C00FFF786F9F8600AE0FFF782F90246FB68BA
:10274C00D31A41F28832934201D9032353E02D4B23
:10275C005B6803F00C027B685B689B009A42EBD1D0
:10276C00274B1B6803F007033A689A4210D2244B9C
:10277C001B6823F0070222493B6813430B60204B74
:10278C001B6803F007033A689A4201D0012332E038
:10279C007B681B6803F00403002B08D0194B5B68A3
:1027AC0023F4E0627B68DB68164913434B607B685B
:1027BC001B6803F00803002B09D0124B5B6823F451
:1027CC0060527B681B69DB000E4913434B6000F0C1
:1027DC0021F802460B4B5B681B0903F00F030A49F7
:1027EC00CB5C22FA03F3094A1360094B1B681846A9
:1027FC00FFF7E4F8002318461037BD4680BD00BF34
:10280C000020024000100240A04E000838000020BA
:10281C004000002080B487B000AF0023FB60002391
:10282C00BB6000237B6100237B6000233B611E4B5C
:10283C005B68FB60FB6803F00C03042B02D0082BD5
:10284C0003D027E0194B3B6127E0FB689B0C03F09E
:10285C000F03174AD35C7B60FB6803F48033002BB7
:10286C0010D0114B5B685B0C03F00103114AD35C75
:10287C00BB607B680D4A03FB02F2BB68B2FBF3F34F
:10288C007B6104E07B680C4A02FB03F37B617B6990
:10289C003B6102E0054B3B6100BF3B6918461C37AE
:1028AC00BD4680BC704700BF0010024000127A0089
:1028BC00B84E0008C84E000800093D0080B400AFB7
:1028CC00024B1B681846BD4680BC70473800002080
:1028DC0080B500AFFFF7F2FF0246054B5B681B0AA1
:1028EC0003F007030349CB5C22FA03F3184680BDBF
:1028FC0000100240B04E000880B500AFFFF7DEFFBD
:10290C000246054B5B68DB0A03F007030349CB5C0B
:10291C0022FA03F3184680BD00100240B04E0008A6
:10292C0080B485B000AF78600A4B1B680A4AA2FBE2
:10293C0003235B0A7A6802FB03F3FB6000BFFB68AE
:10294C005A1EFA60002BF9D100BF00BF1437BD46E8
:10295C0080BC704738000020D34D621080B582B027
:10296C0000AF78607B68002B01D1012341E07B68CC
:10297C0093F83D30DBB2002B06D17B68002283F844
:10298C003C207868FEF7EEFC7B68022283F83D2041
:10299C007B681A687B6804331946104600F030FCDB
:1029AC007B68012283F846207B68012283F83E2055
:1029BC007B68012283F83F207B68012283F840204A
:1029CC007B68012283F841207B68012283F8422036
:1029DC007B68012283F843207B68012283F8442022
:1029EC007B68012283F845207B68012283F83D2017
:1029FC00002318460837BD4680BD000080B485B062
:102A0C0000AF78607B6893F83D30DBB2012B01D0CE
:102A1C0001233AE07B68022283F83D207B681B6827
:102A2C00DA687B681B6842F00102DA607B681B681D
:102A3C00184A93420ED07B681B68B3F1804F09D0C3
:102A4C007B681B68144A934204D07B681B68134A4A
:102A5C00934211D17B681B689B6803F00703FB60F2
:102A6C00FB68062B10D07B681B681A687B681B6898
:102A7C0042F001021A6007E07B681B681A687B68E9
:102A8C001B6842F001021A60002318461437BD4639
:102A9C0080BC7047002C014000040040000800403E
:102AAC0080B582B000AF78607B68002B01D1012328
:102ABC0041E07B6893F83D30DBB2002B06D17B689C
:102ACC00002283F83C20786800F039F87B680222F9
:102ADC0083F83D207B681A687B68043319461046DE
:102AEC0000F08EFB7B68012283F846207B68012274
:102AFC0083F83E207B68012283F83F207B6801220B
:102B0C0083F840207B68012283F841207B680122F6
:102B1C0083F842207B68012283F843207B680122E2
:102B2C0083F844207B68012283F845207B680122CE
:102B3C0083F83D20002318460837BD4680BD80B47D
:102B4C0083B000AF786000BF0C37BD4680BC7047C7
:102B5C0080B584B000AF786039603B68002B09D138
:102B6C007B6893F83E30DBB2012B14BF01230023AA
:102B7C00DBB222E03B68042B09D17B6893F83F3031
:102B8C00DBB2012B14BF01230023DBB215E03B6841
:102B9C00082B09D17B6893F84030DBB2012B14BFB2
:102BAC0001230023DBB208E07B6893F84130DBB2F1
:102BBC00012B14BF01230023DBB2002B01D0012316
:102BCC005EE03B68002B04D17B68022283F83E2038
:102BDC0013E03B68042B04D17B68022283F83F206E
:102BEC000BE03B68082B04D17B68022283F8402061
:102BFC0003E07B68022283F841207B681B6801227A
:102C0C003968184600F07CFD7B681B681E4A9342AD
:102C1C0007D17B681B685A6C7B681B6842F40042C6
:102C2C005A647B681B68184A93420ED07B681B68F9
:102C3C00B3F1804F09D07B681B68144A934204D0CF
:102C4C007B681B68124A934211D17B681B689B6896
:102C5C0003F00703FB60FB68062B10D07B681B6836
:102C6C001A687B681B6842F001021A6007E07B68F7
:102C7C001B681A687B681B6842F001021A6000230B
:102C8C0018461037BD4680BD002C014000040040A2
:102C9C000008004080B582B000AF78607B681B688C
:102CAC001B6903F00203022B22D17B681B68DB68D3
:102CBC0003F00203022B1BD17B681B686FF002022E
:102CCC001A617B6801221A777B681B689B6903F089
:102CDC000303002B03D0786800F076FA05E07868DF
:102CEC0000F069FA786800F078FA7B6800221A77AD
:102CFC007B681B681B6903F00403042B22D17B68DF
:102D0C001B68DB6803F00403042B1BD17B681B6876
:102D1C006FF004021A617B6802221A777B681B68C9
:102D2C009B6903F44073002B03D0786800F04CFAD5
:102D3C0005E0786800F03FFA786800F04EFA7B689E
:102D4C0000221A777B681B681B6903F00803082BA9
:102D5C0022D17B681B68DB6803F00803082B1BD1AE
:102D6C007B681B686FF008021A617B6804221A7773
:102D7C007B681B68DB6903F00303002B03D07868C6
:102D8C0000F022FA05E0786800F015FA786800F097
:102D9C0024FA7B6800221A777B681B681B6903F096
:102DAC001003102B22D17B681B68DB6803F0100327
:102DBC00102B1BD17B681B686FF010021A617B68AB
:102DCC0008221A777B681B68DB6903F44073002BBD
:102DDC0003D0786800F0F8F905E0786800F0EBF9BA
:102DEC00786800F0FAF97B6800221A777B681B6818
:102DFC001B6903F00103012B0ED17B681B68DB6898
:102E0C0003F00103012B07D17B681B686FF00102F3
:102E1C001A617868FEF762FA7B681B681B6903F01D
:102E2C008003802B0ED17B681B68DB6803F080036A
:102E3C00802B07D17B681B686FF080021A61786861
:102E4C0000F0E9FC7B681B681B6903F04003402B16
:102E5C000ED17B681B68DB6803F04003402B07D165
:102E6C007B681B686FF040021A61786800F0BEF94D
:102E7C007B681B681B6903F02003202B0ED17B6839
:102E8C001B68DB6803F02003202B07D17B681B68D1
:102E9C006FF020021A61786800F0B4FC00BF0837AC
:102EAC00BD4680BD80B586B000AFF860B9607A6071
:102EBC000023FB75FB6893F83C30012B01D10223F6
:102ECC00AEE0FB68012283F83C207B680C2B00F2FF
:102EDC009F8001A252F823F0192F00081D30000822
:102EEC001D3000081D300008592F00081D30000847
:102EFC001D3000081D3000089B2F00081D300008F5
:102F0C001D3000081D300008DB2F0008FB681B6813
:102F1C00B968184600F0D6F9FB681B689A69FB681B
:102F2C001B6842F008029A61FB681B689A69FB688F
:102F3C001B6822F004029A61FB681B689969BB68E4
:102F4C001A69FB681B680A439A6164E0FB681B689A
:102F5C00B968184600F01CFAFB681B689A69FB6894
:102F6C001B6842F400629A61FB681B689A69FB68F3
:102F7C001B6822F480629A61FB681B689969BB68C4
:102F8C001B691A02FB681B680A439A6143E0FB68E1
:102F9C001B68B968184600F065FAFB681B68DA69AB
:102FAC00FB681B6842F00802DA61FB681B68DA698F
:102FBC00FB681B6822F00402DA61FB681B68D969A4
:102FCC00BB681A69FB681B680A43DA6123E0FB687B
:102FDC001B68B968184600F0AFFAFB681B68DA6921
:102FEC00FB681B6842F40062DA61FB681B68DA69F3
:102FFC00FB681B6822F48062DA61FB681B68D96984
:10300C00BB681B691A02FB681B680A43DA6102E0A1
:10301C000123FB7500BFFB68002283F83C20FB7D7D
:10302C0018461837BD4680BD80B584B000AF7860B7
:10303C0039600023FB737B6893F83C30012B01D182
:10304C000223B4E07B68012283F83C207B680222D7
:10305C0083F83D207B681B689B68BB60BB6823F0D2
:10306C007703BB60BB6823F47F43BB607B681B6842
:10307C00BA689A603B681B68B3F5005F3ED0B3F545
:10308C00005F00F28780B3F5805F00F08680B3F5B7
:10309C00805F7FD8702B1AD0702B7BD8602B50D0D0
:1030AC00602B77D8502B3CD0502B73D8402B58D05A
:1030BC00402B6FD8302B64D0302B6BD8202B60D0AA
:1030CC00202B67D8002B5CD0102B5AD062E07B6889
:1030DC0018683B6899683B685A683B68DB6800F085
:1030EC00F0FA7B681B689B68BB60BB6843F0770396
:1030FC00BB607B681B68BA689A604FE07B68186895
:10310C003B6899683B685A683B68DB6800F0D9FA01
:10311C007B681B689A687B681B6842F480429A60E3
:10312C003CE07B6818683B6859683B68DB681A466A
:10313C0000F050FA7B681B685021184600F0A7FA83
:10314C002CE07B6818683B6859683B68DB681A465A
:10315C0000F06EFA7B681B686021184600F097FA45
:10316C001CE07B6818683B6859683B68DB681A464A
:10317C0000F030FA7B681B684021184600F087FA93
:10318C000CE07B681A683B681B681946104600F017
:10319C007EFA03E00123FB7300E000BF7B68012291
:1031AC0083F83D207B68002283F83C20FB7B18468B
:1031BC001037BD4680BD80B483B000AF786000BFCF
:1031CC000C37BD4680BC704780B483B000AF7860CC
:1031DC0000BF0C37BD4680BC704780B483B000AFD5
:1031EC00786000BF0C37BD4680BC704780B483B09C
:1031FC0000AF786000BF0C37BD4680BC7047000044
:10320C0080B485B000AF786039607B681B68FB6068
:10321C007B68294A93420BD07B68B3F1804F07D06F
:10322C007B68264A934203D07B68254A934208D197
:10323C00FB6823F07003FB603B685B68FA68134320
:10324C00FB607B681C4A93420BD07B68B3F1804FC8
:10325C0007D07B68194A934203D07B68184A934283
:10326C0008D1FB6823F44073FB603B68DB68FA68A9
:10327C001343FB60FB6823F080023B685B691343DC
:10328C00FB607B68FA681A603B689A687B68DA6254
:10329C003B681A687B689A627B68074A934203D141
:1032AC003B681A697B681A637B6801225A6100BF0C
:1032BC001437BD4680BC7047002C01400004004010
:1032CC000008004080B487B000AF786039607B683C
:1032DC001B6A7B617B681B6A23F001027B681A62A4
:1032EC007B685B683B617B689B69FB60FB6823F0D8
:1032FC007003FB60FB6823F00303FB603B681B68F7
:10330C00FA681343FB607B6923F002037B613B6823
:10331C009B687A6913437B617B681C4A93420CD18E
:10332C007B6923F008037B613B68DB687A69134394
:10333C007B617B6923F004037B617B68134A9342B6
:10334C0011D13B6923F480733B613B6923F4007317
:10335C003B613B685B693A6913433B613B689B6922
:10336C003A6913433B617B683A695A607B68FA6837
:10337C009A613B685A687B685A637B687A691A62FF
:10338C0000BF1C37BD4680BC704700BF002C0140FD
:10339C0080B487B000AF786039607B681B6A7B6152
:1033AC007B681B6A23F010027B681A627B685B687F
:1033BC003B617B689B69FB60FB6823F4E043FB602B
:1033CC00FB6823F44073FB603B681B681B02FA68C4
:1033DC001343FB607B6923F020037B613B689B6894
:1033EC001B017A6913437B617B681D4A93420DD1A3
:1033FC007B6923F080037B613B68DB681B017A6986
:10340C0013437B617B6923F040037B617B68144A27
:10341C00934213D13B6923F480633B613B6923F4F2
:10342C0000633B613B685B699B003A6913433B61FA
:10343C003B689B699B003A6913433B617B683A6923
:10344C005A607B68FA689A613B685A687B689A6331
:10345C007B687A691A6200BF1C37BD4680BC704716
:10346C00002C014080B487B000AF786039607B6875
:10347C001B6A7B617B681B6A23F480727B681A620F
:10348C007B685B683B617B68DB69FB60FB6823F0F6
:10349C007003FB60FB6823F00303FB603B681B6855
:1034AC00FA681343FB607B6923F400737B613B6810
:1034BC009B681B027A6913437B617B681D4A9342AC
:1034CC000DD17B6923F400637B613B68DB681B02D5
:1034DC007A6913437B617B6923F480637B617B682E
:1034EC00144A934213D13B6923F480533B613B69EB
:1034FC0023F400533B613B685B691B013A6913433E
:10350C003B613B689B691B013A6913433B617B68D8
:10351C003A695A607B68FA68DA613B685A687B687A
:10352C00DA637B687A691A6200BF1C37BD4680BCBF
:10353C00704700BF002C014080B487B000AF7860AA
:10354C0039607B681B6A3B617B681B6A23F4805281
:10355C007B681A627B685B687B617B68DB69FB60FC
:10356C00FB6823F4E043FB60FB6823F44073FB60CF
:10357C003B681B681B02FA681343FB603B6923F42E
:10358C0000533B613B689B681B033A6913433B61E7
:10359C007B680F4A934209D17B6923F480437B619A
:1035AC003B685B699B017A6913437B617B687A6931
:1035BC005A607B68FA68DA613B685A687B681A64FF
:1035CC007B683A691A6200BF1C37BD4680BC7047E5
:1035DC00002C014080B487B000AFF860B9607A600D
:1035EC00FB681B6A7B61FB681B6A23F00102FB68AA
:1035FC001A62FB689B693B613B6923F0F0033B61FA
:10360C007B681B013A6913433B617B6923F00A0316
:10361C007B617A69BB6813437B61FB683A699A6189
:10362C00FB687A691A6200BF1C37BD4680BC7047C4
:10363C0080B487B000AFF860B9607A60FB681B6A31
:10364C007B61FB681B6A23F01002FB681A62FB6843
:10365C009B693B613B6923F470433B617B681B03B3
:10366C003A6913433B617B6923F0A0037B61BB6820
:10367C001B017A6913437B61FB683A699A61FB68A9
:10368C007A691A6200BF1C37BD4680BC704780B493
:10369C0085B000AF786039607B689B68FB60FB6825
:1036AC0023F07003FB603A68FB68134343F0070395
:1036BC00FB607B68FA689A6000BF1437BD4680BC1B
:1036CC00704780B487B000AFF860B9607A603B6037
:1036DC00FB689B687B617B6923F47F437B613B6860
:1036EC001A027B681A43BB6813437A6913437B61E4
:1036FC00FB687A699A6000BF1C37BD4680BC704776
:10370C0080B487B000AFF860B9607A60BB6803F032
:10371C001F03012202FA03F37B61FB681A6A7B69BF
:10372C00DB431A40FB681A62FB681A6ABB6803F039
:10373C001F03796801FA03F31A43FB681A6200BF8E
:10374C001C37BD4680BC704780B485B000AF786034
:10375C0039607B6893F83C30012B01D1022346E0A1
:10376C007B68012283F83C207B68022283F83D2091
:10377C007B681B685B68FB607B681B689B68BB6035
:10378C00FB6823F07003FB603B681B68FA6813430B
:10379C00FB607B681B68FA685A607B681B68164A7A
:1037AC0093420ED07B681B68B3F1804F09D07B68C5
:1037BC001B68124A934204D07B681B68104A9342E0
:1037CC000CD1BB6823F08003BB603B685B68BA68B4
:1037DC001343BB607B681B68BA689A607B680122E4
:1037EC0083F83D207B68002283F83C200023184698
:1037FC001437BD4680BC7047002C014000040040CB
:10380C000008004080B483B000AF786000BF0C3774
:10381C00BD4680BC704780B483B000AF786000BFF9
:10382C000C37BD4680BC704780B582B000AF786065
:10383C007B68002B01D1012342E07B6893F8413077
:10384C00DBB2002B06D17B68002283F8402078681D
:10385C00FDF7FAFD7B68242283F841207B681B6806
:10386C00DA687B681B6822F40052DA60786800F032
:10387C0071FD7B681B681A697B681B6822F4904297
:10388C001A617B681B685A697B681B6822F02A02E4
:10389C005A617B681B68DA687B681B6842F40052CB
:1038AC00DA607B6800225A647B68202283F841200E
:1038BC007B68202283F842207B6800225A63002315
:1038CC0018460837BD4680BD80B58AB002AFF86097
:1038DC00B9603B601346FB8000237B61FB6893F867
:1038EC004130DBB2202B6DD1BB68002B02D0FB88A2
:1038FC00002B01D1012366E0FB6800225A64FB68AF
:10390C00212283F84120FEF79BF87861FB68FA8846
:10391C009A84FB68FA88DA84FB689B68B3F5805F4D
:10392C0008D1FB681B69002B04D10023FB61BB6829
:10393C00BB6103E0BB68FB610023BB612AE03B6811
:10394C0000937B6900228021F86800F0F9FA0346A5
:10395C00002B01D0032336E0FB69002B0BD1BB6994
:10396C001B881A46FB681B68C2F308025A60BB69C5
:10397C000233BB6107E0FB691A78FB681B685A606D
:10398C00FB690133FB61FB68DB8C9BB2013B9AB298
:10399C00FB68DA84FB68DB8C9BB2002BCFD13B68D5
:1039AC0000937B6900224021F86800F0C9FA0346B5
:1039BC00002B01D0032306E0FB68202283F8412072
:1039CC00002300E0022318462037BD4680BD0000CE
:1039DC0080B5BAB000AF78607B681B681B68C7F80D
:1039EC00E4307B681B68DB68C7F8E0307B681B68D9
:1039FC005B69C7F8DC300023C7F8D8300023C7F860
:103A0C00D430D7F8E43003F00F03C7F8D830D7F828
:103A1C00D830002B0FD1D7F8E43003F02003002B63
:103A2C0009D0D7F8E03003F02003002B03D07868DE
:103A3C0000F0D1FB5BE2D7F8D830002B00F0DE8031
:103A4C00D7F8DC3003F00103002B06D1D7F8E030B7
:103A5C0003F49073002B00F0D180D7F8E43003F01E
:103A6C000103002B0BD0D7F8E03003F48073002B4C
:103A7C0005D07B685B6C43F001027B685A64D7F815
:103A8C00E43003F00403002B0BD0D7F8DC3003F048
:103A9C000103002B05D07B685B6C43F002027B6852
:103AAC005A64D7F8E43003F00203002B0BD0D7F89C
:103ABC00DC3003F00103002B05D07B685B6C43F01A
:103ACC0004027B685A64D7F8E43003F00803002B37
:103ADC0011D0D7F8E03003F02003002B05D1D7F834
:103AEC00DC3003F00103002B05D07B685B6C43F0EA
:103AFC0008027B685A647B685B6C002B00F0F281D7
:103B0C00D7F8E43003F02003002B08D0D7F8E030CE
:103B1C0003F02003002B02D0786800F05CFB7B687C
:103B2C001B685B6903F04003002B14BF01230023C7
:103B3C00DBB2C7F8D4307B685B6C03F00803002B56
:103B4C0003D1D7F8D430002B4FD0786800F066FA48
:103B5C007B681B685B6903F04003002B41D07B68DA
:103B6C001B681433C7F89C30D7F89C3053E8003FDF
:103B7C00C7F89830D7F8983023F04003C7F8D03006
:103B8C007B681B681433D7F8D020C7F8A820C7F877
:103B9C00A430D7F8A410D7F8A82041E80023C7F820
:103BAC00A030D7F8A030002BD9D17B68DB6B002B71
:103BBC0013D07B68DB6B7E4A5A637B68DB6B1846E1
:103BCC00FEF790F80346002B16D07B68DB6B5B6B23
:103BDC007A68D26B104698470EE0786800F09CF932
:103BEC000AE0786800F098F906E0786800F094F93B
:103BFC007B6800225A6475E100BF73E17B681B6B24
:103C0C00012B40F04F81D7F8E43003F01003002B68
:103C1C0000F04881D7F8E03003F01003002B00F0DF
:103C2C0041810023BB607B681B681B68BB607B68A1
:103C3C001B685B68BB60BB687B681B685B6903F0D7
:103C4C004003002B00F0B6807B68DB6B1B685B6865
:103C5C00A7F8BE30B7F8BE30002B00F045817B686A
:103C6C009B8DB7F8BE209A4280F03E817B68B7F8F6
:103C7C00BE20DA857B68DB6B9B69202B00F088808B
:103C8C007B681B680C33C7F88830D7F8883053E84A
:103C9C00003FC7F88430D7F8843023F48073C7F81A
:103CAC00B8307B681B680C33D7F8B820C7F8942061
:103CBC00C7F89030D7F89010D7F8942041E800233B
:103CCC00C7F88C30D7F88C30002BD9D17B681B68A7
:103CDC0014337B677B6F53E8003F3B673B6F23F0EC
:103CEC000103C7F8B4307B681B681433D7F8B420D1
:103CFC00C7F88020FB67F96FD7F8802041E80023D4
:103D0C00BB67BB6F002BE1D17B681B6814333B6630
:103D1C003B6E53E8003FFB65FB6D23F04003C7F897
:103D2C00B0307B681B681433D7F8B020FA66BB66DA
:103D3C00B96EFA6E41E800237B667B6E002BE3D1F3
:103D4C007B68202283F842207B6800221A637B6800
:103D5C001B680C33FB64FB6C53E8003FBB64BB6C0F
:103D6C0023F01003C7F8AC307B681B680C33D7F812
:103D7C00AC20BA657B65796DBA6D41E800233B6573
:103D8C003B6D002BE3D17B68DB6B1846FDF76FFFB7
:103D9C007B6802225A637B689A8D7B68DB8D9BB2B1
:103DAC00D31A9BB21946786800F0BFF89CE000BFAC
:103DBC00ED4000087B689A8D7B68DB8D9BB2D31A33
:103DCC00A7F8CE307B68DB8D9BB2002B00F08E8089
:103DDC00B7F8CE30002B00F089807B681B680C3361
:103DEC00BB63BB6B53E8003F7B637B6B23F490732B
:103DFC00C7F8C8307B681B680C33D7F8C8207A64C6
:103E0C003B64396C7A6C41E80023FB63FB6B002B41
:103E1C00E3D17B681B6814337B627B6A53E8003FF9
:103E2C003B623B6A23F00103C7F8C4307B681B6814
:103E3C001433D7F8C4203A63FB62F96A3A6B41E851
:103E4C000023BB62BB6A002BE3D17B68202283F882
:103E5C0042207B6800221A637B681B680C333B6131
:103E6C003B6953E8003FFB60FB6823F01003C7F885
:103E7C00C0307B681B680C33D7F8C020FA61BB617B
:103E8C00B969FA6941E800237B617B69002BE3D1B6
:103E9C007B6802225A63B7F8CE301946786800F076
:103EAC0044F823E0D7F8E43003F08003002B09D06A
:103EBC00D7F8E03003F08003002B03D0786800F0D3
:103ECC0023F914E0D7F8E43003F04003002B0ED0B4
:103EDC00D7F8E03003F04003002B08D0786800F0EE
:103EEC0062F904E000BF02E000BF00E000BFE83769
:103EFC00BD4680BD80B483B000AF786000BF0C3786
:103F0C00BD4680BC704780B483B000AF786000BF02
:103F1C000C37BD4680BC704780B483B000AF78606E
:103F2C0000BF0C37BD4680BC704780B483B000AF77
:103F3C0078600B467B8000BF0C37BD4680BC704759
:103F4C0080B590B000AFF860B9603B601346FB7170
:103F5C0050E0BB6CB3F1FF3F4CD0BB6C002B07D0D7
:103F6C00FDF76EFD02463B68D31ABA6C9A4241D2F9
:103F7C00FB681B680C33BB62BB6A53E8003F7B6277
:103F8C007B6A23F4D073FB63FB681B680C33FA6BFE
:103F9C007A633B63396B7A6B41E80023FB62FB6A03
:103FAC00002BE5D1FB681B6814337B617B6953E8FC
:103FBC00003F3B613B6923F00103BB63FB681B685B
:103FCC001433BA6B3A62FB61F9693A6A41E800232F
:103FDC00BB61BB69002BE5D1FB68202283F8412033
:103FEC00FB68202283F84220FB68002283F84020E3
:103FFC0003230FE0FB681B681A68BB681340BA68A0
:10400C009A420CBF01230023DBB21A46FB799A4279
:10401C009FD0002318464037BD4680BD80B495B074
:10402C0000AF78607B681B680C337B637B6B53E859
:10403C00003F3B633B6B23F49073FB647B681B6812
:10404C000C33FA6C3A64FB63F96B3A6C41E800236D
:10405C00BB63BB6B002BE5D17B681B6814333B62E5
:10406C003B6A53E8003FFB61FB6923F00103BB642F
:10407C007B681B681433BA6CFA62BB62B96AFA6A61
:10408C0041E800237B627B6A002BE5D17B681B6BCC
:10409C00012B19D17B681B680C33FB60FB6853E860
:1040AC00003FBB60BB6823F010037B647B681B681C
:1040BC000C337A6CBA617B617969BA6941E8002387
:1040CC003B613B69002BE5D17B68202283F84220C1
:1040DC007B6800221A6300BF5437BD4680BC704712
:1040EC0080B584B000AF78607B685B6AFB60FB686E
:1040FC000022DA85FB680022DA84F868FFF70CFFEF
:10410C0000BF1037BD4680BD80B485B000AF78606D
:10411C007B6893F84130DBB2212B3ED17B689B68E6
:10412C00B3F5805F14D17B681B69002B10D17B68C1
:10413C001B6AFB60FB681B881A467B681B68C2F312
:10414C0008025A607B681B6A9A1C7B681A6208E03A
:10415C007B681B6A591C7A6811621A787B681B6829
:10416C005A607B68DB8C9BB2013B9BB27A68194628
:10417C00D184002B0FD17B681B68DA687B681B68C5
:10418C0022F08002DA607B681B68DA687B681B6847
:10419C0042F04002DA60002300E002231846143794
:1041AC00BD4680BC704780B582B000AF78607B683C
:1041BC001B68DA687B681B6822F04002DA607B6857
:1041CC00202283F841207868FFF794FE00231846DC
:1041DC000837BD4680BD80B58CB000AF78607B6879
:1041EC0093F84230DBB2222B40F0AE807B689B68A8
:1041FC00B3F5805F17D17B681B69002B13D10023AB
:10420C00FB627B689B6ABB627B681B685B689BB2CA
:10421C00C3F308039AB2BB6A1A807B689B6A9A1C28
:10422C007B689A6226E07B689B6AFB620023BB6218
:10423C007B689B68B3F5805F07D07B689B68002B1D
:10424C000AD17B681B69002B06D17B681B685B68F5
:10425C00DAB2FB6A1A7008E07B681B685B68DBB239
:10426C0003F07F03DAB2FB6A1A707B689B6A5A1CF4
:10427C007B689A627B68DB8D9BB2013B9BB27A6850
:10428C001946D185002B5DD17B681B68DA687B6889
:10429C001B6822F02002DA607B681B68DA687B6896
:1042AC001B6822F48072DA607B681B685A697B6831
:1042BC001B6822F001025A617B68202283F842209D
:1042CC007B6800225A637B681B6B012B35D17B68A2
:1042DC0000221A637B681B680C337B617B6953E893
:1042EC00003F3B613B6923F010037B627B681B68DA
:1042FC000C337A6A3A62FB61F9693A6A41E8002345
:10430C00BB61BB69002BE5D17B681B681B6803F0A4
:10431C001003102B0AD10023FB607B681B681B6801
:10432C00FB607B681B685B68FB60FB687B689B8D34
:10433C0019467868FFF7F9FD02E07868FFF7E3FDAE
:10434C00002302E0002300E0022318463037BD466C
:10435C0080BD000080B584B000AF78607B681B68BE
:10436C001B6923F440517B68DA687B681B680A433D
:10437C001A617B689A687B681B691A437B685B6966
:10438C001343BB607B681B68DB6823F4B05323F0DA
:10439C000C037A681268B9680B43D3607B681B689E
:1043AC005B6923F440717B689A697B681B680A43DC
:1043BC005A617B681B682C4A934203D1FEF79CFA26
:1043CC00F86002E0FEF784FAF860FA6813469B0086
:1043DC0013449A001A447B685B689B00B2FBF3F3AE
:1043EC00224AA2FB03235B091901FA6813469B00BE
:1043FC0013449A001A447B685B689B00B2FBF3F28F
:10440C001A4BA3FB02035B09642000FB03F3D31AD2
:10441C001B013233154AA2FB03235B0903F0F003A3
:10442C001944FA6813469B0013449A001A447B689B
:10443C005B689B00B2FBF3F20C4BA3FB02035B0922
:10444C00642000FB03F3D31A1B013233074AA2FB8F
:10445C0003235B0903F00F027B681B680A449A6014
:10446C0000BF1037BD4680BD003801401F85EB51A1
:10447C000EB46FF0004100B59CB01DAB02900690DD
:10448C00079104910848094953F8042B05910068D9
:10449C0002A9019300F08EF90022029B1A701CB045
:1044AC005DF804EB03B07047940000200802FFFF96
:1044BC0003460244934200D1704703F8011BF9E70D
:1044CC00014B1868704700BF9400002070B500269F
:1044DC000C4D0D4C641BA410A64209D100F07AFCC3
:1044EC0000260A4D0A4C641BA410A64205D170BDCF
:1044FC0055F8043B98470136EEE755F8043B9847CE
:10450C000136F2E7004F0008004F0008004F00088A
:10451C00044F00087047704738B50546002940D055
:10452C0051F8043C0C1F002BB8BFE41800F0DCF869
:10453C001C4A136833B9636014602846BDE83840E0
:10454C0000F0D8B8A34208D9206821188B4201BFCB
:10455C0019685B6809182160EDE71A465B680BB1B6
:10456C00A342FAD911685018A0420BD1206801441B
:10457C00501883421160E0D118685B6808441060E1
:10458C005360DAE702D90C232B60D6E72068211898
:10459C008B4201BF19685B68091821606360546025
:1045AC00CBE738BD3403002070B50E4E0C46316895
:1045BC00054611B900F0AAFB30602146284600F0F0
:1045CC00A5FB431C0AD0C41C24F00304A04207D052
:1045DC00211A284600F09AFB013001D14FF0FF342C
:1045EC00204670BD380300202DE9F843CD1C25F082
:1045FC00030508350C2D38BF0C25002D074601DBB3
:10460C00A94205D90C2300263B603046BDE8F8834F
:10461C00DFF8D08000F068F8D8F800301C465CBB9E
:10462C0029463846FFF7C0FF431C044655D1D8F83D
:10463C0000402646002E45D1002C48D02368314638
:10464C00384604EB030900F061FB81453FD121683A
:10465C0038466D1A2946FFF7A7FF013037D023687B
:10466C002B442360D8F80030002B38D05A68A24273
:10467C002BD100225A600FE02268521B1FD40B2A48
:10468C0017D96119A342256018BF5960636808BF28
:10469C00C8F8001062514B60384604F10B0600F06C
:1046AC0029F826F00706231DF21AAED09B1BA35047
:1046BC00ABE7A3426268DDD1C8F80020ECE72346E3
:1046CC006468ACE734467668B4E71346CCE70C2351
:1046DC0038463B6000F00EF897E72560DCE75B603E
:1046EC00FFDE00BF340300200148FFF713BF00BFFB
:1046FC00300300200148FFF70EBF00BF300300203D
:10470C002DE9F0471F468E688246BE420C46904605
:10471C000B682CD88A8912F4906F26D065690969C8
:10472C0005EB4505A3EB010905EBD5757B1C4B444B
:10473C006D109D4238BF1D46530527D52946FFF7FE
:10474C0053FF064660B34A46216900F0FDFAA3897F
:10475C0023F4906343F08003A38126614E442660CA
:10476C003E466561A5EB0905A560BE4200D93E46F3
:10477C0032464146206800F0AFFA0020A3689B1B2C
:10478C00A360236833442360BDE8F0872A4600F019
:10479C00E9FA06460028E0D150462169FFF7BCFE35
:1047AC000C23CAF80030A3894FF0FF3043F04003CC
:1047BC00A381E9E72DE9F04F98468B8907461B0644
:1047CC000D4614469DB00ED50B6963B94021FFF719
:1047DC000BFF2860286120B90C233B604FF0FF30A1
:1047EC00D0E040236B610023099320238DF82930FE
:1047FC0030234FF00109CDF80C80DFF8A0818DF843
:10480C002A3023469A4613F8012B0AB1252AF9D1EE
:10481C00BAEB040B0BD05B46224629463846FFF711
:10482C006FFF013000F0A980099A5A4409929AF856
:10483C000030002B00F0A18000234FF0FF32CDE9B7
:10484C0005230AF1010A049307938DF853301A9348
:10485C005446052214F8011B504800F067FA049ADC
:10486C00D8B9D00644BF20238DF85330110744BF6C
:10487C002B238DF853309AF800302A2B15D0544640
:10488C0000204FF00A0C079A214611F8013B303BEF
:10489C00092B4DD9B0B1079214E0A0EB080309FA2B
:1048AC0003F31343A2460493D2E7039B191D1B6821
:1048BC000391002BBBBF5B4242F0020207930793AC
:1048CC00B8BF049223782E2B0CD163782A2B34D1C9
:1048DC00039B02341A1D1B680392002BB8BF4FF0C8
:1048EC00FF330593DFF8B8A003225046217800F07F
:1048FC001DFA38B14022049BA0EB0A0082401343FE
:10490C000134049314F8011B062226488DF8281054
:10491C0000F00CFA002838D0234B1BBB039B073349
:10492C0023F0070308330393099B3344099368E787
:10493C000C4601200CFB0232A6E700234FF00A0CB8
:10494C00194601340593204610F8012B303A092AF8
:10495C0003D9002BC6D00591C4E7044601230CFBF8
:10496C000121F0E703AB00932A4638460F4B04A90C
:10497C00AFF30080421C0646D6D1AB895B063FF5EF
:10498C002DAF09981DB0BDE8F08F03AB00932A46FC
:10499C003846064B04A900F07DF8EBE7CA4E000838
:1049AC00D04E0008D44E0008000000000D4700084F
:1049BC002DE9F047164699468A680B6907469342DB
:1049CC00B8BF1346336091F843200C46DDF82080C5
:1049DC000AB1013333602368990642BF336802334E
:1049EC003360256815F0060506D104F1190AE36851
:1049FC0032689B1AAB422BDC94F84320131E2268BE
:104A0C0018BF0123920630D44946384604F14302BC
:104A1C00C047013023D02368226903F00603042B1E
:104A2C0014BF002533684FF0000608BFE56804F199
:104A3C001A0408BFED1A54F8123C08BF25EAE575B4
:104A4C009342C4BF9B1AED18B5421AD1002008E05E
:104A5C000123524649463846C047013003D14FF036
:104A6C00FF30BDE8F0870135C1E73020E11881F84F
:104A7C0043005A1C94F845102244023382F8431028
:104A8C00C2E70123224649463846C0470130E6D0EA
:104A9C000136D9E72DE9FF470F7E9146782F8046E6
:104AAC000C469A460C9D01F1430207D8622F0AD896
:104ABC00002F00F0D580582F00F0C18004F1420582
:104ACC0084F842703AE0A7F16303152BF6D801A1E4
:104ADC0051F823F0394B00084D4B0008C94A000827
:104AEC00C94A0008C94A0008C94A00084D4B0008C9
:104AFC00C94A0008C94A0008C94A0008C94A00083E
:104B0C00534C0008794B00080D4C0008C94A0008AA
:104B1C00C94A0008754C0008C94A0008794B0008BE
:104B2C00C94A0008C94A0008154C00082B681A1D10
:104B3C001B682A6004F1420584F842300123A0E08E
:104B4C0020682B68070603F10401296001D51E6853
:104B5C0003E04606FBD5B3F90060002E03DA2D23E3
:104B6C00764284F843300A23594812E02B682068B7
:104B7C00191D2960050601D51E6802E04106FBD50A
:104B8C001E886F2F0CBF08230A235148002184F87C
:104B9C0043106568002DA8BF2168A560A4BF21F053
:104BAC00040121600EB9002D4BD01546B6FBF3F174
:104BBC0003FB1167C75D05F8017D3746BB420E4606
:104BCC00F4D9082B0BD12368DE0708D5236961685B
:104BDC009942DEBF302305F8013C05F1FF35521B2D
:104BEC0022614B4621464046CDF800A003AAFFF7B0
:104BFC00DFFE01304AD14FF0FF3004B0BDE8F08742
:104C0C00236843F0200323607827324884F84570EA
:104C1C00236829681F0651F8046B02D45F0648BF4D
:104C2C00B6B2DF0748BF43F02003296048BF2360BA
:104C3C001EB9236823F0200323601023A6E7244821
:104C4C00E4E71546BDE72B682668181D61692860E6
:104C5C0035061B6801D5196002E07006FBD519807A
:104C6C00002315462361BCE72B6800211A1D2A601E
:104C7C001D686268284600F059F808B1401B606056
:104C8C0063682361002384F84330AAE72A46494627
:104C9C0040462369D0470130ADD023689B0713D41D
:104CAC00E068039B9842B8BF1846A6E7012332463A
:104CBC0049464046D04701309DD00135E368039901
:104CCC005B1AAB42F2DCEBE7002504F11906F5E7C1
:104CDC00DB4E0008EC4E0008884210B501EB0204D4
:104CEC0002D98442234607D8431EA14208D011F8AA
:104CFC00012B03F8012FF8E7014602448A4200D148
:104D0C0010BD13F8014D02F8014DF7E738B500233B
:104D1C00054D044608462B60FCF72EFC431C02D1C3
:104D2C002B6803B1236038BD2C030020034610B55B
:104D3C00C9B202449342184601D1002003E0047822
:104D4C0001338C42F6D110BD0A44914200F1FF337D
:104D5C0000D1704710B511F8014B914203F8014F87
:104D6C00F9D110BD2DE9F041804614460E4621B90B
:104D7C001146BDE8F041FFF737BC2AB9FFF7CCFB71
:104D8C0025462846BDE8F08100F01BF88442074612
:104D9C0002D8B4EB500F12D821464046FFF724FC42
:104DAC0005460028EDD0BC422246314628BF3A4683
:104DBC00FFF7CAFF31464046FFF7AEFBE1E7354649
:104DCC00DFE751F8043C181F002BBCBF0B58C01870
:104DDC0070470000F8B500BFF8BC08BC9E46704791
:0C4DEC00F8B500BFF8BC08BC9E4670473C
:104DF800215F5F5F5F5F4D4F4445315F5F5F5F5F7E
:104E0800230A0D00215F5F5F5F5F4D4F4445325FAE
:104E18005F5F5F5F230A0D00215F5F5F5F5F4D4F3C
:104E28004445335F5F5F5F5F230A0D00215F5F5F6B
:104E38005F5F4D4F4445345F5F5F5F5F230A0D003E
:104E4800215341564544230A0D0000000A0D000075
:104E580021545F524544203D2000000025640A0D7E
:104E68000000000021545F414D424552203D200082
:104E780021545F475245454E203D200021545F5242
:104E88004F41445F313D200021545F524F41445F00
:104E9800323D20000A000000000000000000000071
:104EA80001020304060708090000000001020304C8
:104EB80002030405060708090A0B0C0D0E0F101053
:104EC8000102232D302B2000686C4C006566674575
:104ED800464700303132333435363738394142436A
:104EE800444546003031323334353637383961621B
:084EF800636465660000000020
:044F00003101000873
:044F04000D01000893
:104F08000A0000000300000007000000FFFFFFFF89
:104F180001000000F401000005000000010101018A
:104F2800000801400008014000080140000C014051
:104F380001000200100001000024F4000500000038
:104F4800100000000100000000000000F401002033
:104F58005C020020C40200200000000000000000E5
:104F68000000000000000000000000000000000039
:104F78000000000000000000000000000000000029
:104F88000000000000000000000000000000000019
:084F98000000000048000020A9
:040000050800195185
:00000001FF
