:020000040800F2
:1000000000500020091500089112000897120008FE
:100010009D120008A3120008A912000800000000A9
:10002000000000000000000000000000AF12000807
:10003000BB12000800000000C7120008D31200081D
:1000400051150008511500085115000851150008F8
:1000500051150008511500085115000851150008E8
:1000600051150008511500085115000851150008D8
:1000700051150008511500085115000851150008C8
:1000800051150008511500085115000851150008B8
:1000900051150008511500085115000851150008A8
:1000A0005115000851150008511500085115000898
:1000B000E1120008F512000851150008511500085A
:1000C0005115000851150008511500085115000878
:1000D0005115000851150008511500085115000868
:1000E00051150008511500085115000800000000C6
:1000F0000000000000000000000000000000000000
:0C01000000000000000000005FF808F1A3
:10010C0010B5054C237833B9044B13B10448AFF345
:10011C0000800123237010BD480000200000000067
:10012C007C32000808B5034B1BB103490348AFF3FD
:10013C00008008BD000000004C0000207C3200084C
:10014C0080B500AF494B1B680133052B00F283804F
:10015C0001A252F823F000BF7D01000885010008C0
:10016C00B1010008E3010008090200082F02000891
:10017C003E4B00221A6077E000F02CF93C4B1B68D8
:10018C004FF47A7202FB03F3184601F0BDF8394BB9
:10019C004FF4FA721A60384B14221A60334B012256
:1001AC001A6061E000F016F9344B1B68012B54D136
:1001BC00334B1B684FF47A7202FB03F3184601F0C1
:1001CC00A3F82A4B02221A602A4B4B221A602A4BA4
:1001DC0064221A6041E000F0FDF8284B1B68012BEB
:1001EC003DD1234B1B684FF47A7202FB03F3184684
:1001FC0001F08AF81D4B03221A6030E000F0EAF897
:10020C001E4B1B68012B2CD11D4B1B684FF47A72B3
:10021C0002FB03F3184601F077F8144B04221A6022
:10022C001FE000F0D7F8154B1B68012B1BD1104BAE
:10023C001B684FF47A7202FB03F3184601F064F862
:10024C000C4B4FF4FA721A600B4B14221A60074BCA
:10025C0001221A6007E000BF06E000BF04E000BF07
:10026C0002E000BF00E000BF00BF80BD0C0000201A
:10027C00080000201400002018000020300100208D
:10028C000400002080B500AF184B1B68072B1BD057
:10029C00072B24DC052B02D0062B0AD01FE000F024
:1002AC0099F84FF4FA7001F049F8104B06221A60D5
:1002BC001AE00F4B1B68012B13D100F0DDF94FF442
:1002CC00FA7001F03BF80CE0094B1B68012B0AD1CA
:1002DC0000F0D2F94FF4FA7001F030F803E000BFEF
:1002EC0002E000BF00E000BF00BF80BD0C0000209A
:1002FC003401002080B500AF184B1B680A2B1BD0B3
:10030C000A2B24DC082B02D0092B0AD01FE000F0AA
:10031C0061F84FF4FA7001F011F8104B09221A60D1
:10032C001AE00F4B1B68012B13D100F0BFF94FF4EF
:10033C00FA7001F003F80CE0094B1B68012B0AD191
:10034C0000F0B4F94FF4FA7000F0F8FF03E000BFCE
:10035C0002E000BF00E000BF00BF80BD0C00002029
:10036C003401002080B500AF184B1B680D2B1BD03F
:10037C000D2B24DC0B2B02D00C2B0AD01FE000F031
:10038C0029F84FF4FA7000F0D9FF104B0C221A60C8
:10039C001AE00F4B1B68012B13D100F0A1F94FF49D
:1003AC00FA7000F0CBFF0CE0094B1B68012B0AD153
:1003BC0000F096F94FF4FA7000F0C0FF03E000BFB4
:1003CC0002E000BF00E000BF00BF80BD0C000020B9
:1003DC003401002080B500AF00F0D8F900F056F8D9
:1003EC00284B1B680B2B4AD801A252F823F000BFF4
:1003FC002D0400083B040008450400084B040008C9
:10040C00550400085B0400088B0400088B040008EA
:10041C006B0400088B0400088B0400087B040008A4
:10042C0000F09AF800F0ACF800F074F928E000F055
:10043C00B7F800F011F923E000F0EAF820E000F042
:10044C00F7F800F0C1F81BE000F0CEF818E000F06F
:10045C00A7F800F0B9F80C4B00221A6010E000F07D
:10046C00C3F800F0D5F8084B00221A6008E000F041
:10047C00DFF800F0F1F8044B00221A6000E000BF36
:10048C0000BF80BD0C0000206400002080B500AFD0
:10049C002F4B1B680B2B58D801A252F823F000BF2E
:1004AC00DD040008E3040008F70400080B0500084D
:1004BC001F050008330500085705000857050008FC
:1004CC003F05000857050008570500084B050008B4
:1004DC0000F020F93AE01F4B1B78002B02D100F002
:1004EC0041F933E000F016F930E01A4B1B78002B81
:1004FC0002D100F037F929E000F00CF926E0154B99
:10050C001B78002B02D100F019F91FE000F002F962
:10051C001CE0104B1B78002B02D100F00FF915E0FA
:10052C0000F0F8F812E00B4B01221A7000F0F2F810
:10053C000CE0084B01221A7000F0ECF806E0054BB9
:10054C0001221A7000F0E6F800E000BF00BF80BD89
:10055C000C0000201000002080B500AF00224FF4EA
:10056C008061054801F0FBFA00220821034801F0E4
:10057C00F6FA00BF80BD00BF00080140000C01402E
:10058C0080B500AF00222021044801F0E8FA0022D7
:10059C001021024801F0E3FA00BF80BD000C0140BD
:1005AC0080B500AF01224FF48061054801F0D7FA05
:1005BC0000220821034801F0D2FA00BF80BD00BF21
:1005CC0000080140000C014080B500AF0122202141
:1005DC00044801F0C4FA00221021024801F0BFFACD
:1005EC0000BF80BD000C014080B500AF01224FF46C
:1005FC008061054801F0B3FA01220821034801F09B
:10060C00AEFA00BF80BD00BF00080140000C0140E5
:10061C0080B500AF01222021044801F0A0FA01228C
:10062C001021024801F09BFA00BF80BD000C014074
:10063C0080B500AF00224FF48061054801F08FFABD
:10064C0001220821034801F08AFA00BF80BD00BFD7
:10065C0000080140000C014080B500AF00222021B1
:10066C00044801F07CFA01221021024801F077FACB
:10067C0000BF80BD000C014080B500AF0A4B1B6869
:10068C00002B07D1FFF78CFFFFF79EFF064B0122D3
:10069C001A6006E0FFF760FFFFF772FF024B0022C3
:1006AC001A6000BF80BD00BF6400002080B500AFA1
:1006BC000A4B1B68002B07D1FFF796FFFFF7A8FF2B
:1006CC00064B01221A6006E0FFF746FFFFF758FFC2
:1006DC00024B00221A6000BF80BD00BF64000020E6
:1006EC0080B500AF0A4B1B68002B07D1FFF7A0FFAA
:1006FC00FFF7B2FF064B01221A6006E0FFF72CFF52
:10070C00FFF73EFF024B00221A6000BF80BD00BF06
:10071C006400002080B500AF00224FF480610548D2
:10072C0001F01DFA00224FF48071034801F017FA12
:10073C0000BF80BD000C01400008014080B500AF37
:10074C0001224FF48061054801F009FA00224FF4B0
:10075C008071034801F003FA00BF80BD000C01401A
:10076C000008014080B500AF00224FF480610548BD
:10077C0001F0F5F901224FF48071034801F0EFF913
:10078C0000BF80BD000C01400008014080B500AFE7
:10079C00344B1B680B2B62D801A252F823F000BF1C
:1007AC00DD070008E5070008FB0700081108000832
:1007BC0029080008410800086B0800086B080008AD
:1007CC004F0800086B0800086B0800085D0800085B
:1007DC00002000F0F5FA43E0234B1B78002B02D1EC
:1007EC0000F044F83CE0002000F0EAFA38E01E4B40
:1007FC001B78002B02D100F039F831E0002000F01A
:10080C00DFFA2DE0184B1B78002B03D1002000F0F1
:10081C00D7FA25E0002000F0D3FA21E0124B1B7828
:10082C00002B03D1002000F0CBFA19E0002000F0DF
:10083C00C7FA15E00C4B01221A70002000F0C0FA28
:10084C000EE0094B01221A70002000F0B9FA07E003
:10085C00054B01221A70002000F0B2FA00E000BF34
:10086C0000BF80BD0C0000201000002080B500AF40
:10087C000E4B1B68012B17D10D4B1B68184600F053
:10088C0091FD0C4B1B68002B08D10B4B1B681846B9
:10089C0000F096FA074B01221A6005E0002000F0E8
:1008AC008FFA044B00221A6000BF80BD4801002063
:1008BC0014000020680000201800002080B500AF54
:1008CC00984B1B68012B05D1964B00221A60964B56
:1008DC0001221A70954B1B78022B43D0022B50DC53
:1008EC00002B02D0012B29D04BE0002000F034FA71
:1008FC000346002B40D08D4B01221A708A4B1B787B
:10090C00012B39D18A4B1B68002B0FD0884B1B68ED
:10091C00012B0BD0864B1B68022B07D0844B1B681A
:10092C00032B03D0824B1B68042B25D17E4B00225A
:10093C001A7042F2107000F01BFD1DE0002000F058
:10094C000BFA0346002B03D1784B00221A7015E0EA
:10095C00002000F01BFA0346002B0FD0734B022231
:10096C001A700BE0002000F0F7F90346002B07D1BA
:10097C006E4B00221A7003E000BF02E000BF00E0E3
:10098C0000BF6C4B1B78022B40D0022B4DDC002B94
:10099C0002D0012B26D048E0012000F0DDF90346FF
:1009AC00002B3DD0634B01221A70614B1B68012B4D
:1009BC0002D15F4B05221A605D4B1B68062B02D1DE
:1009CC005B4B08221A605A4B1B68092B02D1584BFF
:1009DC000B221A60564B1B680C2B21D1544B002256
:1009EC001A601DE0012000F0B7F90346002B03D17B
:1009FC00504B00221A7015E0012000F0C7F9034695
:100A0C00002B0FD04B4B02221A700BE0012000F090
:100A1C00A3F90346002B07D1464B00221A7003E0C2
:100A2C0000BF02E000BF00E000BF434B1B78022B6D
:100A3C006AD0022B00F38980002B02D0012B4FD0FF
:100A4C0083E0022000F088F90346002B66D03A4B75
:100A5C0001221A70364B1B68062B03D0344B1B68D3
:100A6C00072B0ED1324B07221A60344B1B68013313
:100A7C00324A1360314B1B68622B02DD2F4B012273
:100A8C001A602B4B1B68092B03D0294B1B680A2BB4
:100A9C000ED1274B0A221A60294B1B680133284AB6
:100AAC001360274B1B68042B02DD254B01221A60B7
:100ABC001F4B1B680C2B03D01D4B1B680D2B2DD112
:100ACC001B4B0D221A601F4B1B6801331D4A136010
:100ADC001C4B1B68622B21DD1A4B01221A601DE096
:100AEC00022000F039F90346002B03D1124B0022EF
:100AFC001A7015E0022000F049F90346002B0FD0C4
:100B0C000D4B02221A700BE0022000F025F903466F
:100B1C00002B19D1084B00221A7015E000BF14E00D
:100B2C0000BF12E044010020100000201C00002037
:100B3C000C0000201D0000201E00002000000020E2
:100B4C00040000200800002000BF434B1B78022B40
:100B5C0071D0022B7EDC002B02D0012B57D079E018
:100B6C00032000F0F9F80346002B6ED03A4B01221B
:100B7C001A703A4B1B68072B14D1384B06221A609B
:100B8C00374B1A68374B1B689A4204DC354B1B6891
:100B9C000133334A1360324B1A68324B1B68D31A39
:100BAC00314A13602D4B1B680A2B14D12B4B092295
:100BBC001A602B4B1A682B4B1B689A4204DC294B8E
:100BCC001B680133264A1360254B1A68254B1B689A
:100BDC00D31A254A1360214B1B680D2B35D11F4BA3
:100BEC000C221A601F4B1A681F4B1B681344622B94
:100BFC0005DD1C4B04221A601B4B5F221A60194B3B
:100C0C001A68194B1B681344154A13601DE0032026
:100C1C0000F0A2F80346002B03D10F4B00221A70F0
:100C2C0015E0032000F0B2F80346002B0FD00A4B5E
:100C3C0002221A700BE0032000F08EF80346002B02
:100C4C0007D1054B00221A7003E000BF02E000BF81
:100C5C0000E000BF00BF80BD1F0000200C00002082
:100C6C0000000020040000200800002080B582B0A5
:100C7C0000AF00237B6058E0304A7B68134419783E
:100C8C002F4A7B6813440A461A702E4A7B6852F826
:100C9C0023202D497B6831F813301946104600F09B
:100CAC0047FF03461946254A7B6813440A461A70C7
:100CBC00224A7B6813441A7821497B680B441B78C1
:100CCC009A4208D11D4A7B68134419781F4A7B68E5
:100CDC0013440A461A701D4A7B6813441B78002B78
:100CEC0016D11B4A7B6832F81330632B0AD8184A8A
:100CFC007B6832F81330013399B2154A7B6822F8BD
:100D0C0013100FE0134A7B68134401221A7009E098
:100D1C000F4A7B68002122F813100E4A7B6813449B
:100D2C0000221A707B6801337B607B68032BA3DD88
:100D3C0000BF00BF0837BD4680BD00BF700000205B
:100D4C007400002020000020300000206C000020E7
:100D5C007C0000207800002080B483B000AF0346F4
:100D6C00FB71FB79032B01D9002307E0FB79064AC1
:100D7C00D35C002B0CBF01230023DBB218460C37CD
:100D8C00BD4680BC704700BF6C00002080B483B0AF
:100D9C0000AF0346FB71FB79032B01D9002307E05D
:100DAC00FB79064AD35C012B0CBF01230023DBB279
:100DBC0018460C37BD4680BC704700BF7800002039
:100DCC0080B483B000AF7860044B1B687A685A63B8
:100DDC0000BF0C37BD4680BC704700BFCC00002064
:100DEC0080B500AF00F0B0FB00F024F800F026F95D
:100DFC0000F062F800F0ACF80C4801F0F7FA0C487F
:100E0C0001F0F4FA00210A4801F09AFB4FF4FA7051
:100E1C0000F0C8FAFFF794F9FFF734FAFFF76AFA13
:100E2C00FFF7A0FAFFF74AFDF4E700BF84000020AB
:100E3C00CC00002080B590B000AF07F11803282239
:100E4C000021184602F0E8F93B1D00221A605A6096
:100E5C009A60DA601A610223BB610123BB62102322
:100E6C00FB6202237B630023BB634FF46013FB63C1
:100E7C0007F11803184600F08BFE0346002B01D037
:100E8C0000F056F90F237B600223BB600023FB604C
:100E9C004FF480633B6100237B613B1D02211846AC
:100EAC0001F0F8F80346002B01D000F041F900BF27
:100EBC004037BD4680BD000080B586B000AF07F15D
:100ECC00080300221A605A609A60DA603B460022DE
:100EDC001A605A601D4B4FF080421A601B4B4FF644
:100EEC00FF125A60194B00229A60184B0922DA60E3
:100EFC00164B00221A61154B00229A61134801F01F
:100F0C0025FA0346002B01D000F012F94FF4805360
:100F1C00BB6007F1080319460C4801F07DFD034640
:100F2C00002B01D000F004F900233B6000237B6010
:100F3C003B461946054802F0FFF80346002B01D04A
:100F4C0000F0F6F800BF1837BD4680BD84000020C5
:100F5C0080B58EB000AF07F1280300221A605A60EA
:100F6C009A60DA6007F1200300221A605A603B1D78
:100F7C0000221A605A609A60DA601A615A619A61AA
:100F8C002C4B2D4A1A602B4B4FF6FF125A60294BF3
:100F9C0000229A60274B0922DA60264B00221A6144
:100FAC00244B00229A61234801F0D0F90346002B10
:100FBC0001D000F0BDF84FF48053BB6207F1280359
:100FCC0019461C4801F028FD0346002B01D000F007
:100FDC00AFF8184801F05CFA0346002B01D000F082
:100FEC00A7F800233B6200237B6207F1200319461C
:100FFC00104802F0A1F80346002B01D000F098F83D
:10100C0060237B600023BB600023FB6000237B61BB
:10101C003B1D00221946074801F03CFC0346002BFF
:10102C0001D000F085F8034800F0FAF800BF38371B
:10103C00BD4680BDCC0000200004004080B586B0C9
:10104C0000AF07F1080300221A605A609A60DA6058
:10105C002E4B9B692D4A43F0040393612B4B9B69E8
:10106C0003F004037B607B68284B9B69274A43F0A1
:10107C0008039361254B9B6903F008033B603B68B5
:10108C0000224FF48761224800F069FD00224FF4E2
:10109C00A061204800F063FD1323BB600023FB60BC
:1010AC0000233B6107F1080319461A4800F0BCFB0A
:1010BC000123BB600023FB6000233B6107F10803A5
:1010CC001946134800F0B0FB4FF48763BB60012353
:1010DC00FB6000233B6102237B6107F10803194687
:1010EC000B4800F0A1FB4FF4A063BB600123FB6035
:1010FC0000233B6102237B6107F108031946054875
:10110C0000F092FB00BF1837BD4680BD00100240B6
:10111C00000C01400008014080B582B000AF78603F
:10112C0000F05AF9FFF7A2FD00BF0837BD4680BD9D
:10113C0080B400AF72B600BFFEE7000080B485B08B
:10114C0000AF154B9B69144A43F001039361124B9A
:10115C009B6903F00103BB60BB680F4BDB690E4A54
:10116C0043F08053D3610C4BDB6903F080537B60FD
:10117C007B680A4B5B68FB60FB6823F0E063FB60F9
:10118C00FB6843F00073FB60044AFB68536000BFCC
:10119C001437BD4680BC704700100240000001406F
:1011AC0080B584B000AF78607B681B68B3F1804F6A
:1011BC0014D1194BDB69184A43F00103D361164B68
:1011CC00DB6903F00103FB60FB68002200211C209B
:1011DC0000F0F3FA1C2000F00CFB18E07B681B6895
:1011EC000E4A934213D10C4BDB690B4A43F00203BA
:1011FC00D361094BDB6903F00203BB60BB680022BF
:10120C0000211D2000F0D9FA1D2000F0F2FA00BFD9
:10121C001037BD4680BD00BF0010024000040040E6
:10122C0080B588B000AF786007F1100300221A6017
:10123C005A609A60DA607B681B680F4A934217D138
:10124C000E4B9B690D4A43F0040393610B4B9B6956
:10125C0003F00403FB60FB6840233B6102237B61CA
:10126C000223FB6107F110031946054800F0DCFA74
:10127C0000BF2037BD4680BD000400400010024076
:10128C000008014080B400AFFEE780B400AFFEE779
:10129C0080B400AFFEE780B400AFFEE780B400AFCF
:1012AC00FEE780B400AF00BFBD4680BC704780B481
:1012BC0000AF00BFBD4680BC704780B400AF00BF1C
:1012CC00BD4680BC704780B500AF00F083F900BF0D
:1012DC0080BD000080B500AF024801F0D3F900BF1B
:1012EC0080BD00BF8400002080B500AF024801F033
:1012FC00C9F900BF80BD00BFCC00002080B400AF96
:10130C0000BFBD4680BC704780B483B000AF78602E
:10131C00074B1B687A6892FBF3F3064A1360064B83
:10132C0000221A6000BF0C37BD4680BC704700BF5E
:10133C003C000020140100203001002080B483B058
:10134C0000AF7860074B1B687A6892FBF3F3064A90
:10135C001360064B00221A6000BF0C37BD4680BCE0
:10136C00704700BF3C000020180100203401002011
:10137C0080B483B000AF7860074B1B687A6892FB2F
:10138C00F3F3064A1360064B00221A6000BF0C37B9
:10139C00BD4680BC704700BF3C00002028010020E7
:1013AC004401002080B483B000AF7860074B1B6809
:1013BC007A6892FBF3F3064A1360064B00221A601C
:1013CC0000BF0C37BD4680BC704700BF3C000020FE
:1013DC002C0100204801002080B400AF394B1B6861
:1013EC00002B0BDD374B1B68013B364A1360354B2A
:1013FC001B68002B02D1344B01221A60334B1B6843
:10140C00002B0BDD314B1B68013B304A13602F4B1B
:10141C001B68002B02D12E4B01221A602D4B1B682E
:10142C00002B0BDD2B4B1B68013B2A4A1360294B0D
:10143C001B68002B02D1284B01221A60274B1B681A
:10144C00002B0BDD254B1B68013B244A1360234BFF
:10145C001B68002B02D1224B01221A60214B1B6806
:10146C00002B0BDD1F4B1B68013B1E4A13601D4BF1
:10147C001B68002B02D11C4B01221A601B4B1B68F2
:10148C00002B0BDD194B1B68013B184A1360174BE3
:10149C001B68002B02D1164B01221A60154B1B68DE
:1014AC00002B0BDD134B1B68013B124A1360114BD5
:1014BC001B68002B02D1104B01221A6000BFBD46E5
:1014CC0080BC70471401002030010020180100205E
:1014DC00340100201C0100203801002020010020D4
:1014EC003C010020240100204001002028010020A4
:1014FC00440100202C01002048010020FFF7FEFED3
:10150C000B480C490C4A002302E0D458C450043355
:10151C00C4188C42F9D3094A094C002301E013602A
:10152C000432A242FBD301F07FFEFFF759FC704757
:10153C000000002048000020C032000848000020B5
:10154C0050010020FEE7000080B500AF084B1B687F
:10155C00074A43F010031360032000F023F90F2017
:10156C0000F008F8FFF7EAFD0023184680BD00BF25
:10157C000020024080B582B000AF7860124B1A6830
:10158C00124B1B7819464FF47A73B3FBF1F3B2FB91
:10159C00F3F3184600F03BF90346002B01D001236E
:1015AC000EE07B680F2B0AD8002279684FF0FF30D1
:1015BC0000F003F9064A7B681360002300E0012366
:1015CC0018460837BD4680BD380000204400002076
:1015DC004000002080B400AF054B1B781A46054B29
:1015EC001B681344034A136000BFBD4680BC7047A0
:1015FC00440000204C01002080B400AF024B1B685B
:10160C001846BD4680BC70474C01002080B485B0A4
:10161C0000AF78607B6803F00703FB600C4BDB6862
:10162C00BB60BA684FF6FF031340BB60FB681A023D
:10163C00BB68134343F0BF6343F40033BB60044AFD
:10164C00BB68D36000BF1437BD4680BC704700BF79
:10165C0000ED00E080B400AF044BDB681B0A03F024
:10166C0007031846BD4680BC704700BF00ED00E084
:10167C0080B483B000AF0346FB7197F90730002BA1
:10168C000BDBFB7903F01F02064997F907305B0966
:10169C00012000FA02F241F8232000BF0C37BD46AE
:1016AC0080BC704700E100E080B483B000AF03461B
:1016BC003960FB7197F90730002B0ADB3B68DAB213
:1016CC000C4997F907301201D2B20B4483F800236E
:1016DC000AE03B68DAB20849FB7903F00F03043BDC
:1016EC001201D2B20B441A7600BF0C37BD4680BC37
:1016FC00704700BF00E100E000ED00E080B489B06D
:10170C0000AFF860B9607A60FB6803F00703FB6117
:10171C00FB69C3F10703042B28BF0423BB61FB69DE
:10172C000433062B02D9FB69033B00E000237B61E9
:10173C004FF0FF32BB6902FA03F3DA43BB681A407D
:10174C007B699A404FF0FF317B6901FA03F3D9436F
:10175C007B680B40134318462437BD4680BC70474A
:10176C0080B582B000AF78607B68013BB3F1807FBD
:10177C0001D301230FE00A4A7B68013B53600F2120
:10178C004FF0FF30FFF790FF054B00229A60044B9F
:10179C0007221A60002318460837BD4680BD00BFDB
:1017AC0010E000E080B582B000AF78607868FFF799
:1017BC002DFF00BF0837BD4680BD80B586B000AF99
:1017CC000346B9607A60FB7300237B61FFF742FF2D
:1017DC0078617A68B9687869FFF790FF024697F9E3
:1017EC000F3011461846FFF75FFF00BF1837BD4694
:1017FC0080BD80B582B000AF0346FB7197F907300E
:10180C001846FFF735FF00BF0837BD4680BD80B5D1
:10181C0082B000AF78607868FFF7A2FF03461846E5
:10182C000837BD4680BD000080B48BB000AF786037
:10183C00396000237B6200233B6269E101227B6AF1
:10184C0002FA03F3FB613B681B68FA691340BB6146
:10185C00BA69FB699A4240F058813B685B689A4AC6
:10186C0093425ED0984A934275D8984A934258D086
:10187C00964A93426FD8964A934252D0944A9342D6
:10188C0069D8944A93424CD0924A934263D8924A74
:10189C00934246D0904A93425DD8122B2AD8122BF1
:1018AC0059D801A252F823F02F1900080919000881
:1018BC001B1900085D19000863190008631900085A
:1018CC0063190008631900086319000863190008FC
:1018DC0063190008631900086319000863190008EC
:1018EC00631900086319000863190008111900082E
:1018FC0025190008794A934213D02CE03B68DB6829
:10190C003B6229E03B68DB6804333B6224E03B68C4
:10191C00DB6808333B621FE03B68DB680C333B62DF
:10192C001AE03B689B68002B02D104233B6213E056
:10193C003B689B68012B05D108233B627B68FA69E5
:10194C001A6109E008233B627B68FA695A6103E07B
:10195C0000233B6200E000BFBB69FF2B01D87B6812
:10196C0001E07B6804337B61BB69FF2B02D87B6A87
:10197C009B0002E07B6A083B9B003B617B691A6819
:10198C000F213B6901FA03F3DB431A40396A3B69C7
:10199C0001FA03F31A437B691A603B685B6803F036
:1019AC008053002B00F0B1804D4B9B694C4A43F0A7
:1019BC00010393614A4B9B6903F00103BB60BB6855
:1019CC00484A7B6A9B08023352F82330FB607B6ADF
:1019DC0003F003039B000F2202FA03F3DB43FA68C4
:1019EC001340FB607B68404A934213D07B683F4AAC
:1019FC0093420DD07B683E4A934207D07B683D4AA8
:101A0C00934201D1032306E0042304E0022302E005
:101A1C00012300E000237A6A02F003029200934053
:101A2C00FA681343FB602F497B6A9B080233FA6800
:101A3C0041F823203B685B6803F48013002B06D02D
:101A4C002D4B9A682C49BB6913438B6006E02A4BDB
:101A5C009A68BB69DB43284913408B603B685B6821
:101A6C0003F40013002B06D0234BDA682249BB6920
:101A7C001343CB6006E0204BDA68BB69DB431E499D
:101A8C001340CB603B685B6803F40033002B06D03B
:101A9C00194B5A681849BB6913434B6006E0164B47
:101AAC005A68BB69DB43144913404B603B685B6865
:101ABC0003F48033002B21D00F4B1A680E49BB69FD
:101ACC0013430B6021E000BF000032100000311006
:101ADC000000221000002110000012100000111054
:101AEC00001002400000014000080140000C0140C1
:101AFC000010014000140140000401400B4B1A6817
:101B0C00BB69DB43094913400B607B6A01337B6281
:101B1C003B681A687B6A22FA03F3002B7FF48EAEC3
:101B2C0000BF00BF2C37BD4680BC7047000401408D
:101B3C0080B485B000AF78600B467B807B689A6878
:101B4C007B881340002B02D00123FB7301E00023A0
:101B5C00FB73FB7B18461437BD4680BC704780B4C2
:101B6C0083B000AF78600B467B8013467B707B782C
:101B7C00002B03D07A887B681A6103E07B881A04F7
:101B8C007B681A6100BF0C37BD4680BC70470000F3
:101B9C0080B586B000AF78607B68002B01D1012343
:101BAC0072E27B681B6803F00103002B00F0878056
:101BBC00924B5B6803F00C03042B0CD08F4B5B68CF
:101BCC0003F00C03082B12D18C4B5B6803F48033AD
:101BDC00B3F5803F0BD1894B1B6803F40033002B0A
:101BEC006CD07B685B68002B68D101234CE27B686E
:101BFC005B68B3F5803F06D1804B1B687F4A43F48A
:101C0C00803313602EE07B685B68002B0CD17B4B20
:101C1C001B687A4A23F480331360784B1B68774A2D
:101C2C0023F4802313601DE07B685B68B3F5A02F61
:101C3C000CD1724B1B68714A43F4802313606F4BB9
:101C4C001B686E4A43F4803313600BE06B4B1B68CC
:101C5C006A4A23F480331360684B1B68674A23F489
:101C6C00802313607B685B68002B13D0FFF7C4FCE8
:101C7C00386108E0FFF7C0FC02463B69D31A642BBD
:101C8C0001D9032300E25D4B1B6803F40033002BE6
:101C9C00F0D014E0FFF7B0FC386108E0FFF7ACFCC3
:101CAC0002463B69D31A642B01D90323ECE1534B55
:101CBC001B6803F40033002BF0D100E000BF7B68FD
:101CCC001B6803F00203002B63D04C4B5B6803F0E2
:101CDC000C03002B0BD0494B5B6803F00C03082B57
:101CEC001CD1464B5B6803F48033002B16D1434B5D
:101CFC001B6803F00203002B05D07B681B69012BCA
:101D0C0001D00123C0E13D4B1B6823F0F8027B6836
:101D1C005B69DB00394913430B603AE07B681B6954
:101D2C00002B20D0364B01221A60FFF765FC38617E
:101D3C0008E0FFF761FC02463B69D31A022B01D97C
:101D4C000323A1E12D4B1B6803F00203002BF0D001
:101D5C002A4B1B6823F0F8027B685B69DB00274980
:101D6C0013430B6015E0264B00221A60FFF744FC6E
:101D7C00386108E0FFF740FC02463B69D31A022B9E
:101D8C0001D9032380E11D4B1B6803F00203002BD8
:101D9C00F0D17B681B6803F00803002B3AD07B68FA
:101DAC009B69002B19D0174B01221A60FFF724FCFA
:101DBC00386108E0FFF720FC02463B69D31A022B7E
:101DCC0001D9032360E10D4B5B6A03F00203002B86
:101DDC00F0D0012000F09CFA1CE00A4B00221A60A3
:101DEC00FFF70AFC38610FE0FFF706FC02463B697F
:101DFC00D31A022B08D9032346E100BF001002407E
:101E0C000000424280044242924B5B6A03F00203A0
:101E1C00002BE9D17B681B6803F00403002B00F056
:101E2C00A6800023FB758B4BDB6903F08053002BE2
:101E3C000DD1884BDB69874A43F08053D361854BC6
:101E4C00DB6903F08053BB60BB680123FB75824BDD
:101E5C001B6803F48073002B18D17F4B1B687E4AE0
:101E6C0043F480731360FFF7C7FB386108E0FFF79A
:101E7C00C3FB02463B69D31A642B01D9032303E14C
:101E8C00754B1B6803F48073002BF0D07B68DB6808
:101E9C00012B06D16F4B1B6A6E4A43F00103136290
:101EAC002DE07B68DB68002B0CD16A4B1B6A694AFE
:101EBC0023F001031362674B1B6A664A23F0040389
:101ECC0013621CE07B68DB68052B0CD1614B1B6A31
:101EDC00604A43F0040313625E4B1B6A5D4A43F095
:101EEC00010313620BE05B4B1B6A5A4A23F001039C
:101EFC001362584B1B6A574A23F0040313627B6826
:101F0C00DB68002B15D0FFF777FB38610AE0FFF791
:101F1C0073FB02463B69D31A41F28832934201D9D2
:101F2C000323B1E04B4B1B6A03F00203002BEED0F2
:101F3C0014E0FFF761FB38610AE0FFF75DFB024636
:101F4C003B69D31A41F28832934201D903239BE0B7
:101F5C00404B1B6A03F00203002BEED1FB7D012BDF
:101F6C0005D13C4BDB693B4A23F08053D3617B6842
:101F7C00DB69002B00F08780364B5B6803F00C03A9
:101F8C00082B61D07B68DB69022B46D1334B0022D6
:101F9C001A60FFF731FB386108E0FFF72DFB0246B2
:101FAC003B69D31A022B01D903236DE0294B1B6823
:101FBC0003F00073002BF0D17B681B6AB3F5803FF4
:101FCC0008D1244B5B6823F400327B689B68214961
:101FDC0013434B601F4B5B6823F474127B68196AC4
:101FEC007B685B6A0B431B4913434B601B4B012201
:101FFC001A60FFF701FB386108E0FFF7FDFA0246B3
:10200C003B69D31A022B01D903233DE0114B1B680A
:10201C0003F00073002BF0D035E0104B00221A6057
:10202C00FFF7EAFA386108E0FFF7E6FA02463B6987
:10203C00D31A022B01D9032326E0064B1B6803F0AD
:10204C000073002BF0D11EE07B68DB69012B07D1FC
:10205C00012319E000100240007000406000424271
:10206C000B4B5B68FB60FB6803F480327B681B6A7C
:10207C009A4206D1FB6803F470127B685B6A9A4241
:10208C0001D0012300E0002318461837BD4680BD5F
:10209C000010024080B584B000AF786039607B6876
:1020AC00002B01D10123D0E06A4B1B6803F007031E
:1020BC003A689A4210D9674B1B6823F007026549AE
:1020CC003B6813430B60634B1B6803F007033A68D0
:1020DC009A4201D00123B8E07B681B6803F002032D
:1020EC00002B20D07B681B6803F00403002B05D069
:1020FC00594B5B68584A43F4E06353607B681B6838
:10210C0003F00803002B05D0534B5B68524A43F491
:10211C0060535360504B5B6823F0F0027B689B6804
:10212C004D4913434B607B681B6803F00103002B84
:10213C0040D07B685B68012B07D1474B1B6803F4CD
:10214C000033002B15D101237FE07B685B68022BE9
:10215C0007D1414B1B6803F00073002B09D10123FD
:10216C0073E03D4B1B6803F00203002B01D10123EC
:10217C006BE0394B5B6823F003027B685B68364984
:10218C0013434B60FFF738FAF8600AE0FFF734FAB4
:10219C000246FB68D31A41F28832934201D90323D9
:1021AC0053E02D4B5B6803F00C027B685B689B0073
:1021BC009A42EBD1274B1B6803F007033A689A420B
:1021CC0010D2244B1B6823F0070222493B681343AF
:1021DC000B60204B1B6803F007033A689A4201D04E
:1021EC00012332E07B681B6803F00403002B08D04A
:1021FC00194B5B6823F4E0627B68DB681649134378
:10220C004B607B681B6803F00803002B09D0124B52
:10221C005B6823F460527B681B69DB000E49134337
:10222C004B6000F021F802460B4B5B681B0903F076
:10223C000F030A49CB5C22FA03F3094A1360094BDA
:10224C001B681846FFF796F9002318461037BD4651
:10225C0080BD00BF002002400010024094320008F4
:10226C00380000204000002080B487B000AF00236D
:10227C00FB600023BB6000237B6100237B60002399
:10228C003B611E4B5B68FB60FB6803F00C03042B8B
:10229C0002D0082B03D027E0194B3B6127E0FB68E9
:1022AC009B0C03F00F03174AD35C7B60FB6803F4B1
:1022BC008033002B10D0114B5B685B0C03F00103D7
:1022CC00114AD35CBB607B680D4A03FB02F2BB680E
:1022DC00B2FBF3F37B6104E07B680C4A02FB03F373
:1022EC007B617B693B6102E0054B3B6100BF3B6955
:1022FC0018461C37BD4680BC704700BF001002401A
:10230C0000127A00A4320008B432000800093D0023
:10231C0080B485B000AF78600A4B1B680A4AA2FBF8
:10232C0003235B0A7A6802FB03F3FB6000BFFB68C4
:10233C005A1EFA60002BF9D100BF00BF1437BD46FE
:10234C0080BC704738000020D34D621080B582B03D
:10235C0000AF78607B68002B01D1012341E07B68E2
:10236C0093F83D30DBB2002B06D17B68002283F85A
:10237C003C207868FEF714FF7B68022283F83D202E
:10238C007B681A687B6804331946104600F030FCF1
:10239C007B68012283F846207B68012283F83E206B
:1023AC007B68012283F83F207B68012283F8402060
:1023BC007B68012283F841207B68012283F842204C
:1023CC007B68012283F843207B68012283F8442038
:1023DC007B68012283F845207B68012283F83D202D
:1023EC00002318460837BD4680BD000080B485B078
:1023FC0000AF78607B6893F83D30DBB2012B01D0E5
:10240C0001233AE07B68022283F83D207B681B683D
:10241C00DA687B681B6842F00102DA607B681B6833
:10242C00184A93420ED07B681B68B3F1804F09D0D9
:10243C007B681B68144A934204D07B681B68134A60
:10244C00934211D17B681B689B6803F00703FB6008
:10245C00FB68062B10D07B681B681A687B681B68AE
:10246C0042F001021A6007E07B681B681A687B68FF
:10247C001B6842F001021A60002318461437BD464F
:10248C0080BC7047002C0140000400400008004054
:10249C0080B582B000AF78607B68002B01D101233E
:1024AC0041E07B6893F83D30DBB2002B06D17B68B2
:1024BC00002283F83C20786800F039F87B6802220F
:1024CC0083F83D207B681A687B68043319461046F4
:1024DC0000F08EFB7B68012283F846207B6801228A
:1024EC0083F83E207B68012283F83F207B68012221
:1024FC0083F840207B68012283F841207B6801220D
:10250C0083F842207B68012283F843207B680122F8
:10251C0083F844207B68012283F845207B680122E4
:10252C0083F83D20002318460837BD4680BD80B493
:10253C0083B000AF786000BF0C37BD4680BC7047DD
:10254C0080B584B000AF786039603B68002B09D14E
:10255C007B6893F83E30DBB2012B14BF01230023C0
:10256C00DBB222E03B68042B09D17B6893F83F3047
:10257C00DBB2012B14BF01230023DBB215E03B6857
:10258C00082B09D17B6893F84030DBB2012B14BFC8
:10259C0001230023DBB208E07B6893F84130DBB207
:1025AC00012B14BF01230023DBB2002B01D001232C
:1025BC005EE03B68002B04D17B68022283F83E204E
:1025CC0013E03B68042B04D17B68022283F83F2084
:1025DC000BE03B68082B04D17B68022283F8402077
:1025EC0003E07B68022283F841207B681B68012290
:1025FC003968184600F07CFD7B681B681E4A9342C4
:10260C0007D17B681B685A6C7B681B6842F40042DC
:10261C005A647B681B68184A93420ED07B681B680F
:10262C00B3F1804F09D07B681B68144A934204D0E5
:10263C007B681B68124A934211D17B681B689B68AC
:10264C0003F00703FB60FB68062B10D07B681B684C
:10265C001A687B681B6842F001021A6007E07B680D
:10266C001B681A687B681B6842F001021A60002321
:10267C0018461037BD4680BD002C014000040040B8
:10268C000008004080B582B000AF78607B681B68A2
:10269C001B6903F00203022B22D17B681B68DB68E9
:1026AC0003F00203022B1BD17B681B686FF0020244
:1026BC001A617B6801221A777B681B689B6903F09F
:1026CC000303002B03D0786800F076FA05E07868F5
:1026DC0000F069FA786800F078FA7B6800221A77C3
:1026EC007B681B681B6903F00403042B22D17B68F5
:1026FC001B68DB6803F00403042B1BD17B681B688D
:10270C006FF004021A617B6802221A777B681B68DF
:10271C009B6903F44073002B03D0786800F04CFAEB
:10272C0005E0786800F03FFA786800F04EFA7B68B4
:10273C0000221A777B681B681B6903F00803082BBF
:10274C0022D17B681B68DB6803F00803082B1BD1C4
:10275C007B681B686FF008021A617B6804221A7789
:10276C007B681B68DB6903F00303002B03D07868DC
:10277C0000F022FA05E0786800F015FA786800F0AD
:10278C0024FA7B6800221A777B681B681B6903F0AC
:10279C001003102B22D17B681B68DB6803F010033D
:1027AC00102B1BD17B681B686FF010021A617B68C1
:1027BC0008221A777B681B68DB6903F44073002BD3
:1027CC0003D0786800F0F8F905E0786800F0EBF9D0
:1027DC00786800F0FAF97B6800221A777B681B682E
:1027EC001B6903F00103012B0ED17B681B68DB68AE
:1027FC0003F00103012B07D17B681B686FF001020A
:10280C001A617868FEF788FC7B681B681B6903F00B
:10281C008003802B0ED17B681B68DB6803F0800380
:10282C00802B07D17B681B686FF080021A61786877
:10283C0000F0E9FC7B681B681B6903F04003402B2C
:10284C000ED17B681B68DB6803F04003402B07D17B
:10285C007B681B686FF040021A61786800F0BEF963
:10286C007B681B681B6903F02003202B0ED17B684F
:10287C001B68DB6803F02003202B07D17B681B68E7
:10288C006FF020021A61786800F0B4FC00BF0837C2
:10289C00BD4680BD80B586B000AFF860B9607A6087
:1028AC000023FB75FB6893F83C30012B01D102230C
:1028BC00AEE0FB68012283F83C207B680C2B00F215
:1028CC009F8001A252F823F0092900080D2A000864
:1028DC000D2A00080D2A0008492900080D2A0008B5
:1028EC000D2A00080D2A00088B2900080D2A000863
:1028FC000D2A00080D2A0008CB290008FB681B686C
:10290C00B968184600F0D6F9FB681B689A69FB6831
:10291C001B6842F008029A61FB681B689A69FB68A5
:10292C001B6822F004029A61FB681B689969BB68FA
:10293C001A69FB681B680A439A6164E0FB681B68B0
:10294C00B968184600F01CFAFB681B689A69FB68AA
:10295C001B6842F400629A61FB681B689A69FB6809
:10296C001B6822F480629A61FB681B689969BB68DA
:10297C001B691A02FB681B680A439A6143E0FB68F7
:10298C001B68B968184600F065FAFB681B68DA69C1
:10299C00FB681B6842F00802DA61FB681B68DA69A5
:1029AC00FB681B6822F00402DA61FB681B68D969BA
:1029BC00BB681A69FB681B680A43DA6123E0FB6891
:1029CC001B68B968184600F0AFFAFB681B68DA6937
:1029DC00FB681B6842F40062DA61FB681B68DA6909
:1029EC00FB681B6822F48062DA61FB681B68D9699A
:1029FC00BB681B691A02FB681B680A43DA6102E0B8
:102A0C000123FB7500BFFB68002283F83C20FB7D93
:102A1C0018461837BD4680BD80B584B000AF7860CD
:102A2C0039600023FB737B6893F83C30012B01D198
:102A3C000223B4E07B68012283F83C207B680222ED
:102A4C0083F83D207B681B689B68BB60BB6823F0E8
:102A5C007703BB60BB6823F47F43BB607B681B6858
:102A6C00BA689A603B681B68B3F5005F3ED0B3F55B
:102A7C00005F00F28780B3F5805F00F08680B3F5CD
:102A8C00805F7FD8702B1AD0702B7BD8602B50D0E6
:102A9C00602B77D8502B3CD0502B73D8402B58D070
:102AAC00402B6FD8302B64D0302B6BD8202B60D0C0
:102ABC00202B67D8002B5CD0102B5AD062E07B689F
:102ACC0018683B6899683B685A683B68DB6800F09B
:102ADC00F0FA7B681B689B68BB60BB6843F07703AC
:102AEC00BB607B681B68BA689A604FE07B681868AB
:102AFC003B6899683B685A683B68DB6800F0D9FA18
:102B0C007B681B689A687B681B6842F480429A60F9
:102B1C003CE07B6818683B6859683B68DB681A4680
:102B2C0000F050FA7B681B685021184600F0A7FA99
:102B3C002CE07B6818683B6859683B68DB681A4670
:102B4C0000F06EFA7B681B686021184600F097FA5B
:102B5C001CE07B6818683B6859683B68DB681A4660
:102B6C0000F030FA7B681B684021184600F087FAA9
:102B7C000CE07B681A683B681B681946104600F02D
:102B8C007EFA03E00123FB7300E000BF7B680122A7
:102B9C0083F83D207B68002283F83C20FB7B1846A1
:102BAC001037BD4680BD80B483B000AF786000BFE5
:102BBC000C37BD4680BC704780B483B000AF7860E2
:102BCC0000BF0C37BD4680BC704780B483B000AFEB
:102BDC00786000BF0C37BD4680BC704780B483B0B2
:102BEC0000AF786000BF0C37BD4680BC704700005A
:102BFC0080B485B000AF786039607B681B68FB607F
:102C0C007B68294A93420BD07B68B3F1804F07D085
:102C1C007B68264A934203D07B68254A934208D1AD
:102C2C00FB6823F07003FB603B685B68FA68134336
:102C3C00FB607B681C4A93420BD07B68B3F1804FDE
:102C4C0007D07B68194A934203D07B68184A934299
:102C5C0008D1FB6823F44073FB603B68DB68FA68BF
:102C6C001343FB60FB6823F080023B685B691343F2
:102C7C00FB607B68FA681A603B689A687B68DA626A
:102C8C003B681A687B689A627B68074A934203D157
:102C9C003B681A697B681A637B6801225A6100BF22
:102CAC001437BD4680BC7047002C01400004004026
:102CBC000008004080B487B000AF786039607B6852
:102CCC001B6A7B617B681B6A23F001027B681A62BA
:102CDC007B685B683B617B689B69FB60FB6823F0EE
:102CEC007003FB60FB6823F00303FB603B681B680D
:102CFC00FA681343FB607B6923F002037B613B683A
:102D0C009B687A6913437B617B681C4A93420CD1A4
:102D1C007B6923F008037B613B68DB687A691343AA
:102D2C007B617B6923F004037B617B68134A9342CC
:102D3C0011D13B6923F480733B613B6923F400732D
:102D4C003B613B685B693A6913433B613B689B6938
:102D5C003A6913433B617B683A695A607B68FA684D
:102D6C009A613B685A687B685A637B687A691A6215
:102D7C0000BF1C37BD4680BC704700BF002C014013
:102D8C0080B487B000AF786039607B681B6A7B6168
:102D9C007B681B6A23F010027B681A627B685B6895
:102DAC003B617B689B69FB60FB6823F4E043FB6041
:102DBC00FB6823F44073FB603B681B681B02FA68DA
:102DCC001343FB607B6923F020037B613B689B68AA
:102DDC001B017A6913437B617B681D4A93420DD1B9
:102DEC007B6923F080037B613B68DB681B017A699C
:102DFC0013437B617B6923F040037B617B68144A3E
:102E0C00934213D13B6923F480633B613B6923F408
:102E1C0000633B613B685B699B003A6913433B6110
:102E2C003B689B699B003A6913433B617B683A6939
:102E3C005A607B68FA689A613B685A687B689A6347
:102E4C007B687A691A6200BF1C37BD4680BC70472C
:102E5C00002C014080B487B000AF786039607B688B
:102E6C001B6A7B617B681B6A23F480727B681A6225
:102E7C007B685B683B617B68DB69FB60FB6823F00C
:102E8C007003FB60FB6823F00303FB603B681B686B
:102E9C00FA681343FB607B6923F400737B613B6826
:102EAC009B681B027A6913437B617B681D4A9342C2
:102EBC000DD17B6923F400637B613B68DB681B02EB
:102ECC007A6913437B617B6923F480637B617B6844
:102EDC00144A934213D13B6923F480533B613B6901
:102EEC0023F400533B613B685B691B013A69134354
:102EFC003B613B689B691B013A6913433B617B68EF
:102F0C003A695A607B68FA68DA613B685A687B6890
:102F1C00DA637B687A691A6200BF1C37BD4680BCD5
:102F2C00704700BF002C014080B487B000AF7860C0
:102F3C0039607B681B6A3B617B681B6A23F4805297
:102F4C007B681A627B685B687B617B68DB69FB6012
:102F5C00FB6823F4E043FB60FB6823F44073FB60E5
:102F6C003B681B681B02FA681343FB603B6923F444
:102F7C0000533B613B689B681B033A6913433B61FD
:102F8C007B680F4A934209D17B6923F480437B61B0
:102F9C003B685B699B017A6913437B617B687A6947
:102FAC005A607B68FA68DA613B685A687B681A6415
:102FBC007B683A691A6200BF1C37BD4680BC7047FB
:102FCC00002C014080B487B000AFF860B9607A6023
:102FDC00FB681B6A7B61FB681B6A23F00102FB68C0
:102FEC001A62FB689B693B613B6923F0F0033B6110
:102FFC007B681B013A6913433B617B6923F00A032D
:10300C007B617A69BB6813437B61FB683A699A619F
:10301C00FB687A691A6200BF1C37BD4680BC7047DA
:10302C0080B487B000AFF860B9607A60FB681B6A47
:10303C007B61FB681B6A23F01002FB681A62FB6859
:10304C009B693B613B6923F470433B617B681B03C9
:10305C003A6913433B617B6923F0A0037B61BB6836
:10306C001B017A6913437B61FB683A699A61FB68BF
:10307C007A691A6200BF1C37BD4680BC704780B4A9
:10308C0085B000AF786039607B689B68FB60FB683B
:10309C0023F07003FB603A68FB68134343F00703AB
:1030AC00FB607B68FA689A6000BF1437BD4680BC31
:1030BC00704780B487B000AFF860B9607A603B604D
:1030CC00FB689B687B617B6923F47F437B613B6876
:1030DC001A027B681A43BB6813437A6913437B61FA
:1030EC00FB687A699A6000BF1C37BD4680BC70478C
:1030FC0080B487B000AFF860B9607A60BB6803F049
:10310C001F03012202FA03F37B61FB681A6A7B69D5
:10311C00DB431A40FB681A62FB681A6ABB6803F04F
:10312C001F03796801FA03F31A43FB681A6200BFA4
:10313C001C37BD4680BC704780B485B000AF78604A
:10314C0039607B6893F83C30012B01D1022346E0B7
:10315C007B68012283F83C207B68022283F83D20A7
:10316C007B681B685B68FB607B681B689B68BB604B
:10317C00FB6823F07003FB603B681B68FA68134321
:10318C00FB607B681B68FA685A607B681B68164A90
:10319C0093420ED07B681B68B3F1804F09D07B68DB
:1031AC001B68124A934204D07B681B68104A9342F6
:1031BC000CD1BB6823F08003BB603B685B68BA68CA
:1031CC001343BB607B681B68BA689A607B680122FA
:1031DC0083F83D207B68002283F83C2000231846AE
:1031EC001437BD4680BC7047002C014000040040E1
:1031FC000008004080B483B000AF786000BF0C378B
:10320C00BD4680BC704780B483B000AF786000BF0F
:10321C000C37BD4680BC704703460244934200D134
:10322C00704703F8011BF9E770B500260C4D0D4CE7
:10323C00641BA410A64209D100F01AF800260A4D0E
:10324C000A4C641BA410A64205D170BD55F8043B72
:10325C0098470136EEE755F8043B98470136F2E7FC
:10326C00B8320008B8320008B8320008BC32000886
:10327C00F8B500BFF8BC08BC9E467047F8B500BF57
:08328C00F8BC08BC9E46704727
:103294000000000000000000010203040607080902
:1032A40002030405060708090A0B0C0D0E0F101083
:0432B4000102000013
:0432B80031010008D8
:0432BC000D010008F8
:1032C0000A0000000300000007000000FFFFFFFFEE
:1032D00001000000F40100000500000001010101EF
:1032E000000801400008014000080140000C0140B6
:1032F00001000200100001000024F4000A00000098
:083300001000000001000000B4
:0400000508001509D1
:00000001FF
